:020000040800F2
:10000000005000209D0A0008A58A0008B18A000857
:10001000C98A0008CF8A0008D58A000800000000BD
:10002000000000000000000000000000DB8A000863
:10003000E78A000800000000F38A0008FF8A000831
:10004000E10A0008E10A0008E10A0008E10A0008E4
:10005000E10A0008E10A0008E10A0008E10A0008D4
:10006000E10A0008E10A0008E10A0008E10A0008C4
:10007000E10A00080D8B0008E10A0008E10A000807
:10008000E10A0008E10A0008E10A0008E10A0008A4
:10009000E10A0008E10A0008E10A0008E10A000894
:1000A000E10A0008E10A0008E10A0008E10A000884
:1000B0001D8A0008E10A0008E10A0008E10A0008B8
:1000C000E10A0008E10A0008E10A0008E10A000864
:1000D000E10A0008757F0008E10A0008E10A00084B
:1000E000E10A0008E10A0008E10A00080000000037
:1000F0000000000000000000000000000000000000
:0C01000000000000000000005FF808F1A3
:02010C000401EC
:1001100010B5054C237833B9044B13B10448AFF341
:1001200000800123237010BDD802002000000000D1
:100130000C01000808B5034B1BB103490348AFF39A
:10014000008008BD00000000DC0200200C01000857
:1001500081F0004102E000BF83F0004330B54FEA78
:1001600041044FEA430594EA050F08BF90EA020FE5
:100170001FBF54EA000C55EA020C7FEA645C7FEA78
:10018000655C00F0E2804FEA5454D4EB5555B8BF9B
:100190006D420CDD2C4480EA020281EA030382EA0C
:1001A000000083EA010180EA020281EA0303362D9E
:1001B00088BF30BD11F0004F4FEA01314FF4801C71
:1001C0004CEA113102D0404261EB410113F0004F83
:1001D0004FEA03334CEA133302D0524263EB43033A
:1001E00094EA050F00F0A780A4F10104D5F1200ED8
:1001F0000DDB02FA0EFC22FA05F2801841F1000133
:1002000003FA0EF2801843FA05F359410EE0A5F106
:1002100020050EF1200E012A03FA0EFC28BF4CF037
:10022000020C43FA05F3C01851EBE37101F00045ED
:1002300007D54FF0000EDCF1000C7EEB00006EEBFA
:100240000101B1F5801F1BD3B1F5001F0CD3490884
:100250005FEA30004FEA3C0C04F101044FEA4452DB
:1002600012F5800F80F09A80BCF1004F08BF5FEA62
:10027000500C50F1000041EB045141EA050130BD42
:100280005FEA4C0C404141EB0101013C28BFB1F554
:10029000801FE9D291F0000F04BF01460020B1FA9F
:1002A00081F308BF2033A3F10B03B3F120020CDA72
:1002B0000C3208DD02F1140CC2F10C0201FA0CF050
:1002C00021FA02F10CE002F11402D8BFC2F1200CB5
:1002D00001FA02F120FA0CFCDCBF41EA0C0190406B
:1002E000E41AA2BF01EB0451294330BD6FEA0404B4
:1002F0001F3C1CDA0C340EDC04F11404C4F120029F
:1003000020FA04F001FA02F340EA030021FA04F3B0
:1003100045EA030130BDC4F10C04C4F1200220FA07
:1003200002F001FA04F340EA0300294630BD21FA45
:1003300004F0294630BD94F0000F83F4801306BF0B
:1003400081F480110134013D4EE77FEA645C18BFFF
:100350007FEA655C29D094EA050F08BF90EA020F96
:1003600005D054EA000C04BF1946104630BD91EA8E
:10037000030F1EBF0021002030BD5FEA545C05D191
:100380004000494128BF41F0004130BD14F58004D0
:100390003CBF01F5801130BD01F0004545F0FE4144
:1003A00041F470014FF0000030BD7FEA645C1ABF79
:1003B000194610467FEA655C1CBF0B46024650EAB0
:1003C000013406BF52EA033591EA030F41F40021DC
:1003D00030BD00BF90F0000F04BF0021704730B562
:1003E0004FF4806404F132044FF000054FF0000137
:1003F00050E700BF90F0000F04BF0021704730B5F8
:100400004FF4806404F1320410F0004548BF4042CC
:100410004FF000013EE700BF42004FEAE2014FEA21
:1004200031014FEA02701FBF12F07F4393F07F4FFC
:1004300081F06051704732F07F4208BF704793F0FF
:100440007F4F04BF41F40021704730B54FF4607412
:1004500001F0004521F000411CE700BF50EA010215
:1004600008BF704730B54FF000050AE050EA0102BE
:1004700008BF704730B511F0004502D5404261EB2E
:1004800041014FF4806404F132045FEA915C3FF46F
:10049000D8AE4FF003025FEADC0C18BF03325FEA0C
:1004A000DC0C18BF033202EBDC02C2F1200300FABD
:1004B00003FC20FA02F001FA03FE40EA0E0021FAE2
:1004C00002F11444BDE600BF70B54FF0FF0C4CF4D0
:1004D000E06C1CEA11541DBF1CEA135594EA0C0F82
:1004E00095EA0C0F00F0DEF82C4481EA030621EABD
:1004F0004C5123EA4C5350EA013518BF52EA0335F8
:1005000041F4801143F4801338D0A0FB02CE4FF0A9
:100510000005E1FB02E506F00042E0FB03E54FF0D9
:100520000006E1FB03569CF0000F18BF4EF0010ED1
:10053000A4F1FF04B6F5007F64F5407404D25FEACD
:100540004E0E6D4146EB060642EAC62141EA555180
:100550004FEAC52040EA5E504FEACE2EB4F1FD0CC2
:1005600088BFBCF5E06F1ED8BEF1004F08BF5FEA40
:10057000500E50F1000041EB045170BD06F00046F2
:1005800046EA010140EA020081EA0301B4EB5C049F
:10059000C2BFD4EB0C0541EA045170BD41F4801197
:1005A0004FF0000E013C00F3AB8014F1360FDEBFBC
:1005B000002001F0004170BDC4F10004203C35DA98
:1005C0000C341BDC04F11404C4F1200500FA05F31B
:1005D00020FA04F001FA05F240EA020001F00042BC
:1005E00021F0004110EBD37021FA04F642EB060132
:1005F0005EEA430E08BF20EAD37070BDC4F10C045C
:10060000C4F1200500FA04F320FA05F001FA04F21F
:1006100040EA020001F0004110EBD37041F100010B
:100620005EEA430E08BF20EAD37070BDC4F1200516
:1006300000FA05F24EEA020E20FA04F301FA05F27E
:1006400043EA020321FA04F001F0004121FA04F226
:1006500020EA020000EBD3705EEA430E08BF20EAF6
:10066000D37070BD94F0000F0FD101F00046400030
:1006700041EB010111F4801F08BF013CF7D041EAB2
:10068000060195F0000F18BF704703F000465200B6
:1006900043EB030313F4801F08BF013DF7D043EA87
:1006A0000603704794EA0C0F0CEA135518BF95EA3D
:1006B0000C0F0CD050EA410618BF52EA4306D1D1C4
:1006C00081EA030101F000414FF0000070BD50EAE3
:1006D000410606BF1046194652EA430619D094EA6D
:1006E0000C0F02D150EA013613D195EA0C0F05D157
:1006F00052EA03361CBF104619460AD181EA0301AB
:1007000001F0004141F0FE4141F470014FF0000062
:1007100070BD41F0FE4141F4780170BD70B54FF0FD
:10072000FF0C4CF4E06C1CEA11541DBF1CEA13557D
:1007300094EA0C0F95EA0C0F00F0A7F8A4EB05045F
:1007400081EA030E52EA03354FEA013100F0888056
:100750004FEA03334FF0805545EA131343EA12631F
:100760004FEA022245EA111545EA10654FEA0026D4
:100770000EF000419D4208BF964244F1FD0404F58D
:10078000407402D25B084FEA3202B61A65EB0305E9
:100790005B084FEA32024FF480104FF4002CB6EBA6
:1007A000020E75EB030E22BFB61A754640EA0C0026
:1007B0005B084FEA3202B6EB020E75EB030E22BF66
:1007C000B61A754640EA5C005B084FEA3202B6EBA7
:1007D000020E75EB030E22BFB61A754640EA9C0066
:1007E0005B084FEA3202B6EB020E75EB030E22BF36
:1007F000B61A754640EADC0055EA060E18D04FEAF4
:10080000051545EA16754FEA06164FEAC30343EA93
:1008100052734FEAC2025FEA1C1CC0D111F4801F60
:100820000BD141EA00014FF000004FF0004CB6E759
:1008300011F4801F04BF01430020B4F1FD0C88BFF8
:10084000BCF5E06F3FF6AFAEB5EB030C04BFB6EB03
:10085000020C5FEA500C50F1000041EB045170BDF6
:100860000EF0004E4EEA113114EB5C04C2BFD4EB23
:100870000C0541EA045170BD41F480114FF0000EA7
:10088000013C90E645EA060E8DE60CEA135594EA23
:100890000C0F08BF95EA0C0F3FF43BAF94EA0C0F26
:1008A0000AD150EA01347FF434AF95EA0C0F7FF49B
:1008B00025AF104619462CE795EA0C0F06D152EAEF
:1008C00003353FF4FDAE1046194622E750EA4106D3
:1008D00018BF52EA43067FF4C5AE50EA41047FF4E4
:1008E0000DAF52EA43057FF4EBAE12E74FF0FF3C49
:1008F00006E000BF4FF0010C02E000BF4FF0010C1A
:100900004DF804CD4FEA410C7FEA6C5C4FEA430C92
:1009100018BF7FEA6C5C1BD001B050EA410C0CBFE1
:1009200052EA430C91EA030F02BF90EA020F002043
:10093000704710F1000F91EA030F58BF994208BFAA
:1009400090422CBFD8176FEAE37040F00100704767
:100950004FEA410C7FEA6C5C02D150EA013C07D1BE
:100960004FEA430C7FEA6C5CD6D152EA033CD3D009
:100970005DF8040B704700BF8446104662468C4603
:100980001946634600E000BF01B5FFF7B7FF002836
:1009900048BF10F1000F01BD4DF808EDFFF7F4FF5F
:1009A0000CBF012000205DF808FB00BF4DF808EDEA
:1009B000FFF7EAFF34BF012000205DF808FB00BF0D
:1009C0004DF808EDFFF7E0FF94BF012000205DF82F
:1009D00008FB00BF4DF808EDFFF7CEFF94BF0120E4
:1009E00000205DF808FB00BF4DF808EDFFF7C4FFDD
:1009F00034BF012000205DF808FB00BF4FEA410230
:100A000012F5001215D211D56FF47873B3EB625260
:100A100012D94FEAC12343F0004343EA505311F087
:100A2000004F23FA02F018BF404270474FF0000019
:100A3000704750EA013005D111F0004008BF6FF057
:100A4000004070474FF00000704700BF4A0011D2CD
:100A500012F5001211D20DD56FF47873B3EB625218
:100A60000ED44FEAC12343F0004343EA505323FA24
:100A700002F070474FF00000704750EA013002D199
:100A80004FF0FF3070474FF000007047034613F8F7
:100A9000012B002AFBD1181A01387047002103E00E
:100AA0000A4B5B584350043109480A4B42189A429A
:100AB000F6D3094A02E0002342F8043B074B9A426E
:100AC000F9D308F045F807F053FF7047A4A90008D0
:100AD00000000020D8020020D8020020941400203A
:100AE000FEE7000080B586B000AF01214FF4017031
:100AF00001F06EFD4FF4004001F028FC0023FB7074
:100B000002233B803B461946204801F0BDF90423EF
:100B10003B803B4619461D4801F0B6F91C4800F0E1
:100B200065FD00237B6000233B7200237B724FF442
:100B30006023FB6000233B6101233B753B1D19468D
:100B4000134800F08DFD0121114800F0DBFD104835
:100B500000F0F3FD0A2007F0D7FA00BF0C4800F0C0
:100B6000FBFD0346002BF9D1094800F00CFE00BF45
:100B7000074800F017FE0346002BF9D1012000F0D2
:100B800019FF00BF1837BD4680BD00BF00080140F7
:100B90000024014080B582B000AF0346FB71F979B3
:100BA000072301220F4800F02FFE01210D4800F01D
:100BB00010FE00BF02210B4800F018FF0346002B77
:100BC000F8D00221074800F02AFF1021054800F064
:100BD00026FF044800F0E1FE034618460837BD46EC
:100BE00080BD00BF0024014080B584B000AF034643
:100BF0000A46FB711346BB71BB79002B01D1002360
:100C000019E00023FB600023FB720BE0FB79184620
:100C1000FFF7C0FF03461A46FB681344FB60FB7AEC
:100C20000133FB72FA7ABB799A42EFD3BB79FA6847
:100C3000B2FBF3F39BB218461037BD4680BD0000EF
:100C400080B582B000AF0121192001F0C1FC402322
:100C5000BB801023FB710223BB713B1D1946054865
:100C600001F012F94021034801F0F1F900BF083703
:100C7000BD4680BD000C014080B500AF4021024858
:100C800001F0D7F900BF80BD000C014080B500AF76
:100C90004021024801F0DBF900BF80BD000C01409B
:100CA00080B582B000AF0123FB710BE0FB791846E1
:100CB00000F022F80346012B01D0002318E0FB7955
:100CC0000133FB71FB790C2BF0D96523FB710BE031
:100CD000FB79184600F010F80346012B01D00023E1
:100CE00006E0FB790133FB71FB79682BF0D9012316
:100CF00018460837BD4680BD80B483B000AF0346B8
:100D0000FB71FB79642B37D9FB79A3F1650230497C
:100D100013465B0013449B000B4408331B68002BF5
:100D200028D0FB79A3F16502294913465B001344DF
:100D30009B000B4404331B68002B1BD0FB79A3F1F1
:100D40006502234913465B0013449B000B440133A7
:100D50001B78002B0ED0FB79A3F165021C491346CA
:100D60005B0013449B000B4402331B78002B01D023
:100D7000012328E0002326E0FB79013B154A1B01F3
:100D8000134408331B68002B1CD0FB79013B114A2C
:100D90001B01134404331B68002B13D0FB79013B68
:100DA0000C4A1B0113440C331B88002B0AD0FB791F
:100DB000013B084A1B0113440E331B88002B01D052
:100DC000012300E0002318460C37BD4680BC704765
:100DD000400100200000002080B582B000AF01215A
:100DE0000D2001F0F5FB4FF48053BB804823FB71CD
:100DF0003B1D19462E4801F047F84FF40043BB80D5
:100E00004823FB713B1D1946294801F03DF8082392
:100E1000BB804823FB713B1D1946264801F034F87E
:100E20001023BB804823FB713B1D1946214801F06C
:100E30002BF82023BB804823FB713B1D19461D481E
:100E400001F022F84FF40053BB804823FB713B1D97
:100E50001946174801F018F84FF40063BB80482387
:100E6000FB713B1D1946124801F00EF84FF48063E8
:100E7000BB804823FB713B1D19460E4801F004F866
:100E80000123BB802823FB713B1D1946084800F055
:100E9000FBFF4FF48043BB802823FB713B1D1946A9
:100EA000034800F0F1FF00BF0837BD4680BD00BF1A
:100EB00000080140000C014080B582B000AF03463D
:100EC000FB71FB79002B02D07C4B01221A707B4B0B
:100ED0001B78002B00F0A2804FF40041784801F00D
:100EE0008FF80346002B3CD01021764801F088F89B
:100EF0000346002B35D04FF48051714801F080F843
:100F00000346002B2DD020216E4801F079F80346CE
:100F1000002B26D008216B4801F072F80346002B05
:100F20001FD04FF40051664801F06AF80346002BC9
:100F300017D04FF40061624801F062F80346002BBD
:100F40000FD04FF480615F4801F05AF80346002B40
:100F500007D04FF480415A4801F052F80346012B64
:100F60005CD1052007F0D0F8544B00221A704FF4E2
:100F70000041534801F044F80346002B01D10123FE
:100F800097E010214F4801F03BF80346002B01D1B8
:100F900002238EE04FF48051494801F031F80346B6
:100FA000002B01D1032384E02021464801F028F8DA
:100FB0000346002B01D104237BE00821414801F0C6
:100FC0001FF80346002B01D1052372E04FF40051B6
:100FD0003B4801F015F80346002B01D1062368E0D9
:100FE0004FF40061364801F00BF80346002B01D1A5
:100FF00007235EE04FF48041314801F001F80346D9
:10100000012B01D1082354E04FF480612D4800F0FA
:10101000F7FF0346002B4AD109234AE04FF4004171
:10102000274800F0EDFF0346012B41D11021254850
:1010300000F0E6FF0346012B3AD14FF480512048DF
:1010400000F0DEFF0346012B32D120211D4800F0C5
:10105000D7FF0346012B2BD108211A4800F0D0FFFF
:101060000346012B24D14FF40051154800F0C8FF6E
:101070000346012B1CD14FF40061114800F0C0FF62
:101080000346012B14D14FF480610E4800F0B8FFE5
:101090000346012B0CD14FF48041094800F0B0FF0A
:1010A0000346002B04D1054B01221A7000E000BF5B
:1010B000002318460837BD4680BD00BF300200201F
:1010C00000080140000C014080B582B000AF03462B
:1010D000FB71FB79002B05D0194B00221A60194BCC
:1010E00000221A804FF48041174800F089FF034620
:1010F000012B12D1052007F007F84FF48041124868
:1011000000F07EFF0346012B15D10D4B1B689AB2F0
:101110000C4B1A800B4B1B880EE04FF480410A48A1
:1011200000F06EFF0346002B05D1054B00221A602C
:10113000044B00221A80002318460837BD4680BDA4
:1011400014100020FA0200200008014080B582B08F
:1011500000AF0346FB71FB79002B05D0194B002231
:101160001A61194B00221A804FF40041174800F011
:1011700047FF0346002B12D1052006F0C5FF4FF4B0
:101180000041124800F03CFF0346002B15D10D4BE7
:101190001B699AB20C4B1A800B4B1B880EE04FF464
:1011A00000410A4800F02CFF0346012B05D1054BF6
:1011B00000221A61044B00221A80002318460837C7
:1011C000BD4680BD14100020FC0200200008014034
:1011D00080B582B000AF0346FB71FB79002B05D0D0
:1011E000184B00225A61184B00221A801021174810
:1011F00000F006FF0346002B11D1052006F084FF06
:101200001021124800F0FCFE0346002B14D10D4BB8
:101210005B699AB20C4B1A800B4B1B880DE01021B6
:101220000A4800F0EDFE0346012B05D1054B0022D4
:101230005A61054B00221A80002318460837BD4624
:1012400080BD00BF14100020FE020020000C0140F1
:1012500080B582B000AF0346FB71FB79002B05D04F
:10126000194B0022DA61194B00221A804FF4805189
:10127000174800F0C5FE0346002B12D1052006F0EA
:1012800043FF4FF48051124800F0BAFE0346002B92
:1012900015D10D4BDB699AB20C4B1A800B4B1B8896
:1012A0000EE04FF480510A4800F0AAFE0346012BDD
:1012B00005D1054B0022DA61044B00221A8000237D
:1012C00018460837BD4680BD1410002000030020DA
:1012D0000008014080B582B000AF0346FB71FB7986
:1012E000002B05D0184B00229A61184B00221A805F
:1012F0002021174800F084FE0346002B11D1052061
:1013000006F002FF2021124800F07AFE0346002B6F
:1013100014D10D4B9B699AB20C4B1A800B4B1B8856
:101320000DE020210A4800F06BFE0346012B05D199
:10133000054B00229A61054B00221A8000231846B3
:101340000837BD4680BD00BF1410002002030020F6
:10135000000C0140B0B582B000AF0023FB71012149
:101360004FF0C05001F052F9012000F0F7FE0820C4
:1013700000F0AEFB03461A4645F250039A420DD1E7
:10138000412001F09DF90346002B40F08A80612046
:1013900001F096F90346002B40F08380012000F015
:1013A000F1FF05E0FB790133FB710A2006F0ACFE8A
:1013B000412001F085F90346002B02D1FB79F92B7E
:1013C000F0D9FB79F92B2DD9444807F009FF444B9C
:1013D00000221A70434B1B689B68184607F0B4FC48
:1013E000002000F0CFFF012000F0ECFF0023FB7194
:1013F00005E0FB790133FB710A2006F085FE6120D0
:1014000001F05EF90346002B02D1FB79F92BF0D9EC
:10141000FB79F92B01D901235BE04FF4007000F058
:10142000E1FF0FE02E4B01221A702F4807F0D8FE83
:101430002C4B1B689B68184607F086FC4FF48070A5
:1014400000F0D0FF012000F0DFFF01F0DBF901F038
:10145000EBF901F06FF9224B1B78012B07D148F211
:10146000040001F0B5F9092000F0F8FA03E049F6AC
:101470003F4001F0ADF901F0C5F9002000F03AF865
:101480001A4807F0ADFE174B1B689B68184607F01B
:101490005BFC01F05FF945F25001082000F0FCFA16
:1014A00016E000F03DF80446412001F009F903463A
:1014B0001D46612001F004F903462A4621460C48E6
:1014C00007F008FE074B1B689B68184607F03CFCBA
:1014D000002318460837BD46B0BD00BFD89F00089E
:1014E0000403002074020020E89F0008F89F000811
:1014F00008A0000880B582B000AF786001214FF0ED
:10150000C05001F083F8012000F028FE786801F057
:1015100047F901F077F9002318460837BD4680BD2A
:1015200080B500AF01F026F90346184680BD0000E3
:1015300080B58AB000AF03460A46FB801346BB80E5
:1015400001214FF4006001F043F80121052001F072
:101550003FF80121224800F089FD4FF48073BB84DD
:10156000182387F82730032387F8263007F1240350
:1015700019461C4800F088FCFB88BB83BB883B8372
:101580000023FB8300237B8307F1180319461648C9
:1015900001F034FB70233B8101237B810023BB815D
:1015A0003223FB8100233B8208237B820023BB8202
:1015B0000023FB8207F1080319460B4801F09AFB50
:1015C0000821094801F089FC0121074801F03DFC90
:1015D0000121054801F01AFC00BF2837BD4680BD37
:1015E0004000160000080140002C014080B582B088
:1015F00000AF78607B68174A93420AD101214FF40B
:10160000007001F021F800214FF4007001F01CF887
:101610001CE07B68104A93420AD101214FF480609C
:1016200001F012F800214FF4806001F00DF80DE098
:101630007B680A4A934209D101214FF4004001F02E
:1016400003F800214FF4004000F0FEFF00BF083710
:10165000BD4680BD0024014000280140003C0140FF
:1016600080B485B000AF786039600023FB60002350
:10167000FB727B685B68FB60FB6823F4702323F4D8
:101680008073FB603B681A683B681B791B0213433D
:10169000FA681343FB607B68FA685A607B689B6852
:1016A000FB60FA68164B1340FB603B68DA683B68E6
:1016B0009B681A433B685B795B001343FA681343EA
:1016C000FB607B68FA689A607B68DB6AFB60FB689A
:1016D00023F47003FB603B681B7C013BDAB2FB7AAE
:1016E0001343FB72FB7A1B05FA681343FB607B68AC
:1016F000FA68DA6200BF1437BD4680BC704700BF8D
:10170000FDF7F1FF80B483B000AF78600B46FB704B
:10171000FB78002B06D07B689B6843F001027B6856
:101720009A6005E07B689B6823F001027B689A6001
:1017300000BF0C37BD4680BC704780B483B000AF9B
:1017400078607B689B6843F008027B689A6000BF02
:101750000C37BD4680BC704780B485B000AF786060
:101760000023FB737B689B6803F00803002B02D007
:101770000123FB7301E00023FB73FB7B1846143746
:10178000BD4680BC704780B483B000AF78607B6892
:101790009B6843F004027B689A6000BF0C37BD462B
:1017A00080BC704780B485B000AF78600023FB73C5
:1017B0007B689B6803F00403002B02D00123FB73BA
:1017C00001E00023FB73FB7B18461437BD4680BC49
:1017D000704780B483B000AF78600B46FB70FB7835
:1017E000002B06D07B689B6843F4A0027B689A605C
:1017F00005E07B689B6823F4A0027B689A6000BFC9
:101800000C37BD4680BC704780B485B000AF7860AF
:10181000084611461A460346FB700B46BB7013463A
:101820007B700023FB600023BB60FB78092B23D96E
:101830007B68DB68FB60FB78A3F10A0213465B0060
:101840001344072202FA03F3BB60BB68DB43FA6868
:101850001340FB607978FB78A3F10A0213465B0022
:10186000134401FA03F3BB60FA68BB681343FB60DF
:101870007B68FA68DA601EE07B681B69FB60FA78B7
:1018800013465B001344072202FA03F3BB60BB68F4
:10189000DB43FA681340FB607978FA7813465B0003
:1018A000134401FA03F3BB60FA68BB681343FB609F
:1018B0007B68FA681A61BB78062B21D87B685B6B62
:1018C000FB60BB785A1E13469B0013441F2202FA8A
:1018D00003F3BB60BB68DB43FA681340FB60F97835
:1018E000BB785A1E13469B00134401FA03F3BB60F6
:1018F000FA68BB681343FB607B68FA685A6347E089
:10190000BB780C2B21D87B681B6BFB60BB78DA1F84
:1019100013469B0013441F2202FA03F3BB60BB680B
:10192000DB43FA681340FB60F978BB78DA1F134693
:101930009B00134401FA03F3BB60FA68BB681343CE
:10194000FB607B68FA681A6322E07B68DB6AFB60F5
:10195000BB78A3F10D0213469B0013441F2202FA29
:1019600003F3BB60BB68DB43FA681340FB60F978A4
:10197000BB78A3F10D0213469B00134401FA03F355
:10198000BB60FA68BB681343FB607B68FA68DA6285
:1019900000BF1437BD4680BC704780B483B000AF31
:1019A00078607B68DB6C9BB218460C37BD4680BC08
:1019B0007047000080B483B000AF0346FB71FB7931
:1019C000002B06D0084B9B68074A43F40003936042
:1019D00005E0054B9B68044A23F40003936000BFB5
:1019E0000C37BD4680BC70470024014080B485B0F0
:1019F00000AF78600B46FB700023FB737B681A68AE
:101A0000FB781340002B02D00123FB7301E000237D
:101A1000FB73FB7B18461437BD4680BC704780B40F
:101A200083B000AF78600B46FB70FB78DA437B68CD
:101A30001A6000BF0C37BD4680BC704780B483B0CD
:101A400000AF0346FB71044AFB79136000BF0C37FB
:101A5000BD4680BC704700BF00860D4280B485B093
:101A600000AF0346FB710023FB810A4B9B8DFB817A
:101A7000FB8923F07F03FB81FB799AB2FB89134337
:101A8000FB81044AFB89938500BF1437BD4680BCA7
:101A9000704700BF006C004080B485B000AF0346C3
:101AA0000A46FB801346BB800023FB60074BFB60AC
:101AB000FA88FB681344FB60FB681A46BB88136016
:101AC00000BF1437BD4680BC704700BF006C0040AB
:101AD00080B485B000AF0346FB800023FB60074B5A
:101AE000FB60FA88FB681344FB60FB681B889BB2B1
:101AF00018461437BD4680BC704700BF006C0040DC
:101B000080B483B000AF78607B681A684FF6FE73CC
:101B100013407A6813607B6800221A607B68002299
:101B20005A607B6800229A607B680022DA607B68DA
:101B3000434A934206D1434B5B68424A43F00F034A
:101B4000536077E07B68404A934206D13D4B5B6827
:101B50003C4A43F0F00353606CE07B683B4A93429D
:101B600006D1384B5B68374A43F47063536061E0D9
:101B70007B68374A934206D1324B5B68314A43F463
:101B80007043536056E07B68324A934206D12D4B36
:101B90005B682C4A43F4702353604BE07B682E4A09
:101BA000934206D1274B5B68264A43F47003536087
:101BB00040E07B68294A934206D1224B5B68214A68
:101BC00043F07063536035E07B68254A934206D149
:101BD000244B5B68234A43F00F0353602AE07B6881
:101BE000214A934206D11F4B5B681E4A43F0F00323
:101BF00053601FE07B681D4A934206D1194B5B6816
:101C0000184A43F47063536014E07B68184A9342A7
:101C100006D1144B5B68134A43F47043536009E0E8
:101C20007B68144A934205D10E4B5B680D4A43F41E
:101C30007023536000BF0C37BD4680BC704700BFA7
:101C400008000240000002401C0002403000024038
:101C500044000240580002406C00024080000240F4
:101C600008040240000402401C0402403004024008
:101C7000440402405804024080B485B000AF78604C
:101C800039600023FB607B681B68FB60FB6823F402
:101C9000FF4323F07003FB603B689A683B681B6A54
:101CA0001A433B681B691A433B685B691A433B68EC
:101CB0009B691A433B68DB691A433B685B6A1A43BA
:101CC0003B689B6A1343FA681343FB607B68FA68BE
:101CD0001A603B68DA687B685A603B681A687B6800
:101CE0009A603B685A687B68DA6000BF1437BD466B
:101CF00080BC704780B483B000AF78607B680022FE
:101D00001A607B6800225A607B6800229A607B68B8
:101D10000022DA607B6800221A617B6800225A6127
:101D20007B6800229A617B680022DA617B6800226E
:101D30001A627B6800225A627B6800229A6200BFA6
:101D40000C37BD4680BC704780B483B000AF78606C
:101D50000B46FB70FB78002B06D07B681B6843F0BA
:101D600001027B681A6006E07B681A684FF6FE7312
:101D700013407A68136000BF0C37BD4680BC7047C3
:101D800080B483B000AF78600B467B807A887B6834
:101D90005A6000BF0C37BD4680BC704780B485B028
:101DA00000AF78600023FB730023BB607B6803F007
:101DB0008053002B03D00B4B1B68BB6002E00A4B27
:101DC0001B68BB60BA687B681340002B02D00123FC
:101DD000FB7301E00023FB73FB7B18461437BD4601
:101DE00080BC7047000402400000024080B483B011
:101DF00000AF78607B6803F08053002B03D0064A65
:101E00007B68536002E0054A7B68536000BF0C3773
:101E1000BD4680BC704700BF000402400000024085
:101E200080B485B000AF78600023FB60094B1B686D
:101E3000FB60FB6803F03803FB60FA687B681343C0
:101E4000FB60044AFB68136000BF1437BD4680BCCA
:101E5000704700BF0020024080B483B000AF7860BC
:101E6000084B1B68074A23F010031360054B1A68E0
:101E700004497B6813430B6000BF0C37BD4680BC30
:101E8000704700BF0020024080B489B000AF786086
:101E900039600023FB6100233B610023BB61002309
:101EA000FB6000237B610023BB603B68DB7803F0B1
:101EB0000F03FB613B68DB7803F01003002B05D0B8
:101EC0003B689B781A46FB691343FB613B681B88A0
:101ED000DBB2002B44D07B681B687B610023BB61B5
:101EE00038E00122BB6902FA03F3FB603B681B8800
:101EF0001A46FB6813403B613A69FB689A4226D157
:101F0000BB699B00FB600F22FB6802FA03F3BB6016
:101F1000BB68DB437A6913407B61FA69FB6802FAAC
:101F200003F37A6913437B613B68DB78282B05D187
:101F30000122BB699A407B685A6108E03B68DB7804
:101F4000482B04D10122BB699A407B681A61BB69A6
:101F50000133BB61BB69072BC3D97B687A691A60FF
:101F60003B681B88FF2B46D97B685B687B6100233D
:101F7000BB613AE0BB690833012202FA03F3FB605C
:101F80003B681B881A46FB6813403B613A69FB6853
:101F90009A4227D1BB699B00FB600F22FB6802FAC3
:101FA00003F3BB60BB68DB437A6913407B61FA696A
:101FB000FB6802FA03F37A6913437B613B68DB78C1
:101FC000282B05D1BB69083301229A407B685A61EE
:101FD0003B68DB78482B05D1BB69083301229A4066
:101FE0007B681A61BB690133BB61BB69072BC1D92F
:101FF0007B687A695A6000BF2437BD4680BC704751
:1020000080B485B000AF78600B467B800023FB7303
:102010007B689A687B881340002B02D00123FB73F6
:1020200001E00023FB73FB7B18461437BD4680BCE0
:10203000704780B483B000AF78600B467B807A88AD
:102040007B681A6100BF0C37BD4680BC704780B406
:1020500083B000AF78600B467B807A887B685A61DA
:1020600000BF0C37BD4680BC7047000080B487B00D
:1020700000AF78600B46FB7000233B610023FB60E0
:1020800000237B610023BB607B68002B03DA2E4BAF
:10209000DB697B6102E02C4B5B687B617B681B0C1E
:1020A00003F00F03BB607B689BB23B617B6803F46A
:1020B0004013B3F5401F0AD17B6923F070637B6145
:1020C000214B5B68204A23F07063536021E07B68FA
:1020D00003F48013002B0ED00322BB6802FA03F333
:1020E000FB60FB68DB437A6913407B617B6943F0EB
:1020F00070637B610DE07B685B0D1B013A6902FA3E
:1021000003F3DB437A6913407B617B6943F07063BF
:102110007B61FB78002B08D07B685B0D1B013A6963
:1021200002FA03F37A6913437B617B68002B03DABD
:10213000054A7B69D36102E0034A7B69536000BFB3
:102140001C37BD4680BC70470000014080B400AF22
:1021500030BF00BFBD4680BC7047000080B483B074
:1021600000AF0346FB71044AFB79136000BF0C37D4
:10217000BD4680BC704700BF20000E4280B483B0D3
:1021800000AF0346FB71044AFB79136000BF0C37B4
:10219000BD4680BC704700BFA0000E4280B500AFB6
:1021A0000A4B1B68094A43F004031360074B1B6882
:1021B000064A43F002031360054B1B69044A43F0CF
:1021C00004031361FFF7C2FF00BF80BD0070004031
:1021D00000ED00E080B483B000AF0346FB71044A19
:1021E000FB79136000BF0C37BD4680BC704700BF51
:1021F0000000424280B485B000AF786039600023AF
:10220000FB600A4B5B68FB60FB6823F47C13FB609C
:102210007A683B681343FA681343FB60034AFB6820
:10222000536000BF1437BD4680BC704700100240A9
:1022300080B483B000AF0346FB71044AFB7913609E
:1022400000BF0C37BD4680BC704700BF60004242F3
:1022500080B485B000AF78600023FB60094B5B68F9
:10226000FB60FB6823F00303FB60FA687B681343A1
:10227000FB60044AFB68536000BF1437BD4680BC56
:10228000704700BF0010024080B400AF044B5B6891
:10229000DBB203F00C03DBB21846BD4680BC7047CE
:1022A0000010024080B485B000AF78600023FB606E
:1022B000094B5B68FB60FB6823F0F003FB60FA6886
:1022C0007B681343FB60044AFB68536000BF14370C
:1022D000BD4680BC704700BF0010024080B485B08E
:1022E00000AF78600023FB60094B5B68FB60FB6814
:1022F00023F4E063FB60FA687B681343FB60044AE5
:10230000FB68536000BF1437BD4680BC704700BFF8
:102310000010024080B485B000AF78600023FB60FD
:10232000094B5B68FB60FB6823F46053FB607B68D0
:10233000DB00FA681343FB60034AFB68536000BF8D
:102340001437BD4680BC70470010024080B485B091
:1023500000AF78600023FB60094B5B68FB60FB68A3
:1023600023F44043FB60FA687B681343FB60044A34
:10237000FB68536000BF1437BD4680BC704700BF88
:102380000010024080B483B000AF0346FB710C4BD9
:1023900000221A700A4B00221A70FB79012B02D01E
:1023A000042B04D007E0064B01221A7003E0044B13
:1023B00005221A7000BF00BF0C37BD4680BC7047B5
:1023C0002010024080B483B000AF0346FB71044A82
:1023D000FB79136000BF0C37BD4680BC704700BF5F
:1023E0008004424280B483B000AF7860054B1A6A23
:1023F00004497B6813430B6200BF0C37BD4680BCA9
:10240000704700BF0010024080B483B000AF0346A5
:10241000FB71044AFB79136000BF0C37BD4680BCDA
:10242000704700BF3C04424280B487B000AF786080
:1024300000237B6100233B610023FB600023BB6022
:102440004F4B5B6803F00C037B617B69082B11D059
:102450007B69082B3AD87B69002B03D07B69042B5E
:1024600004D033E07B68474A1A6033E07B68454A12
:102470001A602FE0424B5B6803F470133B61404BE2
:102480005B6803F48033FB603B699B0C02333B6168
:10249000FB68002B06D13B693B4A02FB03F27B68D9
:1024A0001A6017E0364B5B6803F40033002B06D04C
:1024B0003B69354A02FB03F27B681A600AE03B691C
:1024C000304A02FB03F27B681A6003E07B682D4A06
:1024D0001A6000BF2A4B5B6803F0F0037B617B69E5
:1024E0001B097B61294A7B6913441B78DBB2BB6003
:1024F0007B681A68BB68DA407B685A60204B5B686F
:1025000003F4E0637B617B691B0A7B611F4A7B6983
:1025100013441B78DBB2BB607B685A68BB68DA4047
:102520007B689A60164B5B6803F460537B617B6940
:10253000DB0A7B61154A7B6913441B78DBB2BB6005
:102540007B685A68BB68DA407B68DA600C4B5B6872
:1025500003F440437B617B699B0B7B610C4A7B6985
:1025600013441B78DBB2BB607B68DA68BB68B2FBE4
:10257000F3F27B681A6100BF1C37BD4680BC704710
:102580000010024000127A0000093D0034020020D1
:102590004402002080B483B000AF78600B46FB702B
:1025A000FB78002B06D0094B5A6908497B68134316
:1025B0004B6106E0054B5A697B68DB4303491340D6
:1025C0004B6100BF0C37BD4680BC70470010024015
:1025D00080B483B000AF78600B46FB70FB78002BB3
:1025E00006D0094B9A6908497B6813438B6106E062
:1025F000054B9A697B68DB43034913408B6100BF3D
:102600000C37BD4680BC70470010024080B483B0D8
:1026100000AF78600B46FB70FB78002B06D0094BAF
:10262000DA6908497B681343CB6106E0054BDA6938
:102630007B68DB4303491340CB6100BF0C37BD46C9
:1026400080BC70470010024080B483B000AF786057
:102650000B46FB70FB78002B06D0094BDA68084963
:102660007B681343CB6006E0054BDA687B68DB438D
:1026700003491340CB6000BF0C37BD4680BC704798
:102680000010024080B483B000AF78600B46FB704E
:10269000FB78002B06D0094B1A6908497B68134365
:1026A0000B6106E0054B1A697B68DB430349134065
:1026B0000B6100BF0C37BD4680BC70470010024064
:1026C00080B487B000AF0346FB710023FB6000239A
:1026D0007B610023FB74FB795B09DBB2FB60FB6869
:1026E000012B03D1124B1B687B6109E0FB68022BB5
:1026F00003D10F4B1B6A7B6102E00D4B5B6A7B6170
:10270000FB7903F01F03FB607A69FB6822FA03F38D
:1027100003F00103002B02D00123FB7401E000232E
:10272000FB74FB7C18461C37BD4680BC704700BF5D
:102730000010024080B400AF054B9B889BB2044A56
:1027400043F010039BB2938000BFBD4680BC70472E
:102750000028004080B400AF054B9B889BB2044A20
:1027600023F010039BB2938000BFBD4680BC70472E
:102770000028004080B483B000AF0023FB80074BEB
:102780009B8BFB80054B1B8B9BB21A04FB8813436E
:1027900018460C37BD4680BC704700BF002800407B
:1027A00080B582B000AF7860FFF7C4FF7B681A0C79
:1027B000064B92B21A83054B7A6892B29A83FFF75E
:1027C000C9FF00BF0837BD4680BD00BF00280040DC
:1027D00080B582B000AF7860FFF7ACFF7B681B0C60
:1027E0009BB2074A03F00F039BB21381044B7A6834
:1027F00092B29A81FFF7AEFF00BF0837BD4680BD99
:102800000028004080B400AF00BF064B9B889BB2FD
:1028100003F02003002BF8D000BF00BFBD4680BCF2
:10282000704700BF0028004080B400AF0A4B9B886F
:102830009BB2094A23F008039BB2938000BF064B6A
:102840009B889BB203F00803002BF8D000BF00BFA9
:10285000BD4680BC704700BF0028004080B485B0F2
:1028600000AF786039600023FB817B681B88FB81A7
:10287000FB8903F44153FB813B681A883B685B8802
:1028800013439AB23B689B8813439AB23B68DB8838
:1028900013439AB23B681B8913439AB23B685B8926
:1028A00013439AB23B689B8913439AB23B68DB8916
:1028B00013439AB2FB891343FB817B68FA891A8020
:1028C0007B689B8B9BB223F400639AB27B689A83EC
:1028D0003B681A8A7B681A8200BF1437BD4680BCE9
:1028E000704780B483B000AF78600B46FB70FB7814
:1028F000002B08D07B681B889BB243F040039AB240
:102900007B681A8007E07B681B889BB223F040033A
:102910009AB27B681A8000BF0C37BD4680BC7047F6
:1029200080B483B000AF78600B467B8013467B7029
:102930007B78002B08D07B689B889AB27B881343F6
:102940009AB27B689A8009E07B689B889AB27B8800
:10295000DB439BB213409AB27B689A8000BF0C376E
:10296000BD4680BC704780B483B000AF78600B4632
:102970007B807B687A889A8100BF0C37BD4680BC1B
:10298000704780B483B000AF78607B689B899BB24E
:1029900018460C37BD4680BC704780B485B000AF88
:1029A00078600B467B800023FB737B681B899AB29F
:1029B0007B8813409BB2002B02D00123FB7301E004
:1029C0000023FB73FB7B18461437BD4680BC704761
:1029D00080B582B000AF78607B68784A93420AD1B4
:1029E00001214FF40060FFF72FFE00214FF400603B
:1029F000FFF72AFEDEE07B68B3F1804F08D10121AA
:102A00000120FFF73FFE00210120FFF73BFED1E050
:102A10007B686B4A934208D101210220FFF732FE06
:102A200000210220FFF72EFEC4E07B68654A934236
:102A300008D101210420FFF725FE00210420FFF723
:102A400021FEB7E07B68604A934208D1012108204B
:102A5000FFF718FE00210820FFF714FEAAE07B68AC
:102A60005A4A934208D101211020FFF70BFE0021A2
:102A70001020FFF707FE9DE07B68554A934208D17E
:102A800001212020FFF7FEFD00212020FFF7FAFDA5
:102A900090E07B684F4A93420AD101214FF40050E5
:102AA000FFF7D2FD00214FF40050FFF7CDFD81E08C
:102AB0007B68494A93420AD101214FF40020FFF775
:102AC000C3FD00214FF40020FFF7BEFD72E07B68DC
:102AD000424A93420AD101214FF48010FFF7B4FD1E
:102AE00000214FF48010FFF7AFFD63E07B683C4AA4
:102AF00093420AD101214FF40010FFF7A5FD0021F8
:102B00004FF40010FFF7A0FD54E07B68354A934274
:102B100008D101214020FFF7B5FD00214020FFF73B
:102B2000B1FD47E07B68304A934208D10121802003
:102B3000FFF7A8FD00218020FFF7A4FD3AE07B68A5
:102B40002A4A93420AD101214FF48070FFF79AFD7F
:102B500000214FF48070FFF795FD2BE07B68244A3D
:102B600093420AD101214FF48030FFF76DFD00211F
:102B70004FF48030FFF768FD1CE07B681D4A9342EC
:102B80000AD101214FF40030FFF75EFD00214FF420
:102B90000030FFF759FD0DE07B68174A934209D1D9
:102BA00001214FF48020FFF74FFD00214FF48020DA
:102BB000FFF74AFD00BF0837BD4680BD002C01402D
:102BC0000004004000080040000C004000100040DD
:102BD0000014004000340140004C0140005001400E
:102BE0000054014000180040001C0040002000403C
:102BF00000400140004401400048014080B485B0DD
:102C000000AF786039600023FB817B681B88FB8103
:102C10007B682E4A934213D07B682D4A93420FD093
:102C20007B68B3F1804F0BD07B682A4A934207D070
:102C30007B68294A934203D07B68284A934208D193
:102C4000FB8923F07003FB813B685A88FB8913439F
:102C5000FB817B68224A93420CD07B68214A9342D5
:102C600008D0FB8923F44073FB813B68DA88FB8939
:102C70001343FB817B68FA891A803B689A887B68DA
:102C80009A853B681A887B681A857B680F4A93424D
:102C90000FD07B680E4A93420BD07B68124A934256
:102CA00007D07B68114A934203D07B68104A934255
:102CB00004D13B681B7A9AB27B681A867B68012232
:102CC0009A8200BF1437BD4680BC7047002C01407B
:102CD000003401400004004000080040000C0040A7
:102CE000001000400014004000400140004401403A
:102CF0000048014080B485B000AF7860396000239F
:102D00007B810023FB810023BB817B681B8C9BB2F2
:102D100023F001039AB27B681A847B681B8CFB81C9
:102D20007B689B88BB817B681B8B7B817B8923F0C5
:102D300070037B817B8923F003037B813B681A88C6
:102D40007B8913437B81FB8923F00203FB813B6872
:102D50001A89FB891343FB813B685A88FB8913431B
:102D6000FB817B68244A93420FD07B68234A9342BD
:102D70000BD07B68224A934207D07B68214A93425A
:102D800003D07B68204A934223D1FB8923F00803B8
:102D9000FB813B685A89FB891343FB81FB8923F044
:102DA0000403FB813B689A88FB891343FB81BB8941
:102DB00023F48073BB81BB8923F40073BB813B6820
:102DC0009A89BB891343BB813B68DA89BB8913436A
:102DD000BB817B68BA899A807B687A891A833B6851
:102DE000DA887B689A867B68FA891A8400BF143770
:102DF000BD4680BC704700BF002C0140003401403C
:102E000000400140004401400048014080B483B0CC
:102E100000AF78600B46FB70FB78002B08D07B6816
:102E20001B889BB243F001039AB27B681A8007E0CB
:102E30007B681B889BB223F001039AB27B681A80DF
:102E400000BF0C37BD4680BC704780B483B000AF74
:102E500078600B46FB70FB78002B0CD07B68B3F8D6
:102E600044309BB26FEA43436FEA53439AB27B68A4
:102E7000A3F8442009E07B68B3F844309BB2C3F365
:102E80000E039AB27B68A3F8442000BF0C37BD46FE
:102E900080BC704780B483B000AF78600B467B8005
:102EA00013467B707B78002B08D07B689B899AB295
:102EB0007B8813439AB27B689A8109E07B689B897F
:102EC0009AB27B88DB439BB213409AB27B689A81AB
:102ED00000BF0C37BD4680BC704780B485B000AFE2
:102EE00078600B467B800023FB817B681B8BFB811A
:102EF000FB8923F00803FB81FA897B881343FB815C
:102F00007B68FA891A8300BF1437BD4680BC7047BE
:102F100080B483B000AF78600B467B807B687A8892
:102F20009A8400BF0C37BD4680BC704780B483B024
:102F300000AF78600B467B807B687A889A8600BFFA
:102F40000C37BD4680BC704780B485B000AF786058
:102F50000B467B800023FB730023BB8100237B8116
:102F60007B681B8A9AB27B881340BB817B689B89F4
:102F70009AB27B8813407B81BB89002B05D07B896B
:102F8000002B02D00123FB7301E00023FB73FB7BCA
:102F900018461437BD4680BC704780B483B000AF7C
:102FA00078600B467B807B88DB439AB27B681A8211
:102FB00000BF0C37BD4680BC7047000080B58CB0A8
:102FC00000AF786039600023FB620023BB620023FE
:102FD0007B6200233B620023FB617B68FB617B68B3
:102FE0001B8A9BB2FB62FA6A4CF6FF731340FB62CA
:102FF0003B68DB881A46FB6A1343FB62FB6A9AB2A2
:103000007B681A827B689B899BB2FB62FA6A4EF6E8
:10301000F3131340FB623B689A883B681B89134398
:103020009AB23B685B8913439BB21A46FB6A13430F
:10303000FB62FB6A9AB27B689A817B689B8A9BB22F
:10304000FB62FA6A4FF6FF431340FB623B689B89C1
:103050001A46FB6A1343FB62FB6A9AB27B689A8248
:1030600007F108031846FFF7DFF9FB692E4A934280
:1030700002D17B69BB6201E03B69BB627B689B89D3
:103080009BB21BB2002B0CDABA6A13469B001344A6
:103090009A001A443B681B685B00B2FBF3F37B6247
:1030A0000BE0BA6A13469B0013449A001A443B682B
:1030B0001B689B00B2FBF3F37B627B6A1B4AA2FB9B
:1030C00003235B091B01FB62FB6A1B09642202FBF1
:1030D00003F37A6AD31A3B627B689B899BB21BB26B
:1030E000002B0CDA3B6ADB003233104AA2FB0323CD
:1030F0005B0903F00703FA6A1343FB620BE03B6AC8
:103100001B013233094AA2FB03235B0903F00F03BF
:10311000FA6A1343FB62FB6A9AB27B681A8100BFAA
:103120003037BD4680BD00BF003801401F85EB51E0
:1031300080B483B000AF78600B46FB70FB78002B47
:1031400008D07B689B899BB243F400539AB27B689A
:103150009A8107E07B689B899BB223F400539AB263
:103160007B689A8100BF0C37BD4680BC704780B435
:1031700087B000AF78600B467B8013467B700023DE
:103180003B610023FB600023BB6000237B617B6805
:103190007B617B88DBB25B09DBB23B617B8803F040
:1031A0001F03FB600122FB6802FA03F3BB603B696B
:1031B000012B03D17B690C337B6109E03B69022B56
:1031C00003D17B6910337B6102E07B6914337B613F
:1031D0007B78002B06D07B6919687B69BA680A4343
:1031E0001A6006E07B691968BB68DA437B690A40AC
:1031F0001A6000BF1C37BD4680BC704780B483B0E6
:1032000000AF78607B689B889BB2C3F308039BB2D6
:1032100018460C37BD4680BC704780B487B000AFFD
:1032200078600B467B800023FB6000237B610023DA
:10323000BB600023FB747B88DBB25B09DBB2BB6045
:103240007B8803F01F037B6101227B6902FA03F391
:103250007B61BB68012B07D17B689B899BB21A46B7
:103260007B6913407B6111E0BB68022B07D17B684F
:103270001B8A9BB21A467B6913407B6106E07B6820
:103280009B8A9BB21A467B6913407B617B881B0A31
:103290009BB2FB600122FB6802FA03F3FB607B68D0
:1032A0001B889BB21A46FB681340FB607B69002BAE
:1032B00005D0FB68002B02D00123FB7401E0002342
:1032C000FB74FB7C18461C37BD4680BC7047034628
:1032D00083F30888704700BF80B584B000AFF86002
:1032E000B9607A607B8001210120FFF753F9F8680B
:1032F000FEF706FC164A7B881380164ABB681360EB
:10330000144A7B685360134B10229A607B88114AE1
:10331000D360104B00221A610E4B80225A610D4B74
:1033200000229A610B4B0022DA610A4B00221A62DA
:10333000084B4FF480525A62064B00229A620549AC
:10334000F868FEF799FC00BF1037BD4680BD00BF8E
:10335000481000204C10002080B584B000AFF86009
:10336000B9607A607B8001210120FFF713F9F868CA
:10337000FEF7C6FB174A7B881380174ABB681360A9
:10338000154A7B685360144B10229A607B88124A5E
:10339000D360114B00221A610F4B00225A610E4B71
:1033A0004FF480729A610C4B4FF48062DA610A4BE1
:1033B00000221A62084B4FF480525A62064B0022D8
:1033C0009A620549F868FEF757FC00BF1037BD4602
:1033D00080BD00BF481000204C10002080B58EB08A
:1033E00000AF78600B467B80FF2387F837300121E0
:1033F0000120FFF7CFF82448FEF782FB2348FEF7B1
:103400007FFB07F108031846FEF774FC204BBB60F6
:103410007B68FB6000233B617B887B610023BB6191
:103420008023FB6100233B6200237B620023BB629D
:103430004FF44053FB6200233B6307F10803194636
:103440001148FEF719FC01210F48FEF77DFC07F13A
:103450003703FB6010233B614FF44053FB620023B2
:10346000FB6107F1080319460848FEF705FC012136
:103470000648FEF769FC012203210648FFF750FACF
:1034800000BF3837BD4680BD1C00024030000240FE
:103490000C3001400030014080B582B000AF786050
:1034A00000217868FEF750FC064B1B881946064839
:1034B000FEF766FC01217868FEF746FC00BF08377E
:1034C000BD4680BD481000203000024080B582B06B
:1034D00000AF01210420FFF77BF801210820FFF74E
:1034E00077F801211020FFF773F801212020FFF762
:1034F0006FF801210120FFF76BF801215648FEF714
:10350000B5FD01214FF40040FEF7B0FD0120FEF7AC
:1035100025FE0020FEF736FF0020FEF78FFA03237A
:10352000BB711023FB718023BB803B1D19464B48A8
:10353000FEF7AAFC80214948FEF789FD4FF40053AD
:10354000BB803B1D19464548FEF79EFC4FF40051D9
:103550004248FEF77CFD1423FB714FF48073BB805F
:103560000420FEF7B5FA03461A464AF6CD339A42CE
:1035700005D14FF480713948FEF769FD04E04FF43E
:1035800080713648FEF755FD3B1D19463348FEF75E
:103590007BFC0420FEF79CFA03461A464AF6CD331C
:1035A0009A4205D14FF480712C48FEF750FD04E09B
:1035B0004FF480712948FEF73CFD4FF40073BB8047
:1035C0003B1D19462548FEF75FFC4FF40071234868
:1035D000FEF72FFD4FF48053BB803B1D19461F485B
:1035E000FEF752FC4FF480511C48FEF722FD4FF4C9
:1035F0000053BB803B1D19461948FEF745FC4FF4AC
:1036000000511748FEF723FD4FF40063BB803B1DBC
:1036100019461248FEF738FC4FF400610F48FEF7D8
:1036200016FD0423FB714FF40043BB803B1D19467C
:103630000A48FEF729FC2823FB714FF48043BB8026
:103640003B1D19460548FEF71FFCFDF7F9FA00BFC0
:103650000837BD4680BD00BF00043000000C0140AB
:103660000010014080B500AFFDF706FB00BF80BD34
:1036700080B500AF01214FF0C050FEF7C7FF012019
:10368000FEF76CFD00BF80BD80B582B000AF034681
:10369000FB71FB79042B45D801A252F823F000BF3F
:1036A000B5360008CB360008E1360008F7360008CA
:1036B0000D3700084FF480511D48FEF7BAFC4FF457
:1036C00000511C48FEF7C3FC2DE04FF48051184810
:1036D000FEF7AFFC4FF400511648FEF7AAFC22E0BB
:1036E0004FF480511248FEF7B2FC4FF400511148DC
:1036F000FEF7ADFC17E04FF480510D48FEF7A7FC34
:103700004FF400510B48FEF794FC0CE00A4B1B7879
:10371000002B03D00220FFF7B7FF04E00120FFF7E2
:10372000B3FF00E000BF00BF0837BD4680BD00BF4B
:10373000000C0140001001400803002080B483B059
:1037400000AF0346FB71FB79002B03D0054B012230
:103750001A7002E0034B00221A700C37BD4680BC81
:10376000704700BF0803002080B500AF02F0F0FFF3
:1037700003F050F900BF80BD82B0B0B58AB002AF8F
:1037800007F1300484E80C000346FB800B46BB8045
:103790006B461D460023FB827B6BBB610F237B7551
:1037A000FB8F1A467B7D92FBF3F33B75FB8F1A462A
:1037B0007B7D92FBF3F103FB01F3D31AFB74BB8F08
:1037C0001A467B7D03FB02F35B005C1C631EFB60FF
:1037D000234618464FF000014FF000024FF000035F
:1037E000CB0043EA5073C200234618464FF0000155
:1037F0004FF000024FF00003CB0043EA5073C200C9
:1038000023460733DB08DB00ADEB030D02AB0033CF
:10381000BB600023FB772BE0B868BB8F7A7D92B248
:1038200002FB03F39BB25B009BB21A46B96903F03B
:1038300099F9BB8F1A467B7D03FB02F35B001A46A6
:10384000BB691344BB61BA88FB8A134499B2BA8F2F
:103850007B7D9CB2BB68F8880093234602F0F6FD9E
:103860007B7D9AB2FB8A1344FB82FB7F0133FB779B
:10387000FA7F3B7D9A42CFD3B868BB8FFA7C92B275
:1038800002FB03F39BB25B009BB21A46B96903F0DB
:1038900069F9BB8F1A46FB7C03FB02F35B001A46F7
:1038A000BB691344BB61FB8AEF2B0CD8BA88FB8A37
:1038B000134499B2BA8FFB7C9CB2BB68F888009322
:1038C000234602F0C3FDAD4600BF2037BD46BDE82C
:1038D000B04002B0704782B080B586B000AF07F14B
:1038E000200C8CE80C000346FB800B46BB807A6AF8
:1038F000FB88B96A01FB03F313447B61BB887A69D7
:1039000013443B6107F10F0301223969184603F0A4
:1039100029F9FB7B18461837BD46BDE8804002B048
:10392000704782B080B584B000AF7860FB610B4611
:103930007B8013463B803A6A7B88796A01FB03F3FC
:103940001344FB603B881A46F968786803F00AF96B
:1039500000BF1037BD46BDE8804002B07047000090
:1039600080B485B000AF0346FB71FB79642B16D998
:103970000023FB730FE0FA7B154913465B001344E9
:103980009B000B441B78FA799A4201D1FB7B1AE029
:10399000FB7B0133FB73FB7B032BECD912E0002391
:1039A000FB730CE0FB7B0B4A1B0113441B78FA7979
:1039B0009A4201D1FB7B06E0FB7B0133FB73FB7B6F
:1039C0000B2BEFD9FF2318461437BD4680BC704738
:1039D000400100200000002080B584B000AF034605
:1039E0003960FB71FB791846FFF7BAFF0346FB739A
:1039F000FB7BFF2B15D0FB79642B0AD9FA7B0B4993
:103A000013465B0013449B000B4404333A681A606E
:103A100008E0FB7B064A1B01134404333A681A6032
:103A200000E000BF1037BD4680BD00BF4001002050
:103A30000000002080B586B000AF3B600346FB71FC
:103A40000B46BB7113467B71FB791846FFF788FF65
:103A50000346FB73FB7BFF2B00F0908000233B6150
:103A60000023FB7512E0FB7D3A6813441B7819466E
:103A70007B795A1EFB7DD31ADB0001FA03F31A4649
:103A80003B6913443B61FB7D0133FB75FA7D7B7918
:103A90009A42E8D3FB79642B2ED9BB79782B1ED0C0
:103AA000782B6CDC762B02D0772B0BD067E0FA7B7F
:103AB000344913465B0013449B000B4408333A69B6
:103AC0001A605CE0FA7B3B69D8B22E4913465B0072
:103AD00013449B000B44013302461A704FE0FA7BFB
:103AE0003B69D8B2274913465B0013449B000B4443
:103AF000023302461A7042E0BB79713B042B3ED878
:103B000001A252F823F000BF1D3B0008313B000822
:103B1000453B0008593B00086D3B0008FB7B3A69B8
:103B200091B2194A1B0113440C330A461A8026E04D
:103B3000FB7B3A6991B2144A1B0113440E330A46C7
:103B40001A801CE0FB7B3A69D1B20F4A1B01134477
:103B500001330A461A7012E0FB7B3A69D1B20A4A75
:103B60001B01134402330A461A7008E0FB7B064A25
:103B70001B01134408333A691A6000E000BF18378C
:103B8000BD4680BD4001002000000020F0B585B09A
:103B900002AF0346FB71FB79002B06D0444B002299
:103BA0001A70444B01221A707EE0414B1B78002BA7
:103BB00018D1414B6C4603F1080292E8030084E8F7
:103BC00003000CCB00210020FFF7D6FD002000F001
:103BD000E5FE642002F0ACFC354B01221A70374B35
:103BE00000225A60012001F09BF803461A4641F278
:103BF0005E039A4219D9304B93F8B1309CB22E4BE8
:103C000093F8B2309DB22C4B6E4603F1B80292E8A5
:103C1000030086E80300B0330CCB29462046FFF7AB
:103C2000ABFD274B01221A703EE0244B5B68B3F5D5
:103C3000FA7F39DD224B1B78012B34D01D4B1B78CA
:103C40001D4A1B01134401331B789CB2194B1B788E
:103C5000194A1B01134402331B789DB2154B1B7884
:103C6000154A1B0113446E4603F1080292E8030053
:103C700086E803000CCB29462046FFF77DFD002097
:103C800000F08CFE0B4B1B780133DAB2094B1A7033
:103C9000084B1B78092B02D9064B01221A70074BDF
:103CA00000225A6000E000BF0C37BD46F0BD00BFE7
:103CB0000A03002049020020000000201410002008
:103CC0000B03002090B587B004AF0346FB71FB796E
:103CD000002B03D01F4B00221A7038E01D4B1B78BD
:103CE000002B1CD11C4B00225A60642002F020FCE7
:103CF0000DE01A4B6C4603F1A80292E8030084E839
:103D00000300A0330CCB00210020FFF735FD124B40
:103D10005B68B3F5FA7FECDD0E4B01221A700123CC
:103D2000029318230193002300934FF6FF730C4A6C
:103D3000C8213C2002F054FB074B00225A6001E0EE
:103D400000F002FA044B5B68B3F5FA7FF8DD0C373C
:103D5000BD4690BD0C030020141000200000002080
:103D60003CA1000890B587B004AF0346FB71664BD9
:103D70001B78012B40F0BA80FB79002B03D0634BFA
:103D800000221A70BDE0614B1B78002B29D1604BDB
:103D900000225A601EE05F4B6C4603F1A80292E8D5
:103DA000030084E80300A0330CCB00210020FFF7C0
:103DB000E3FC002302931823019341F65D33009343
:103DC0004FF6FF73544AB0212A2002F009FB642009
:103DD00002F0AEFB4E4B5B68322BDCDD4B4B01221D
:103DE0001A704B4B00225A600DE0002302931823F7
:103DF000019341F65D3300934FF6E073474AC821C3
:103E0000542002F0EDFA424B5B68642BEDDD404B31
:103E100000225A600DE0002302931823019341F61B
:103E20005D3300934FF6E0733D4AC821542002F001
:103E3000D7FA374B5B68642BEDDD354B00225A60B7
:103E40000DE0002302931823019341F65D330093A4
:103E50004FF6E073334AC821542002F0C1FA2C4BCC
:103E60005B68642BEDDD2A4B00225A600DE00023D5
:103E700002931823019341F65D3300934FF6E073EC
:103E8000294AC821542002F0ABFA214B5B68642B0D
:103E9000EDDD1F4B00225A600DE000230293182332
:103EA000019341F65D3300934FF6E0731F4AC8213A
:103EB000542002F095FA164B5B68642BEDDD144B31
:103EC00000225A600DE0002302931823019341F66B
:103ED0005D3300934FF6E073154AC821542002F079
:103EE0007FFA0B4B5B68642BEDDD0AE0642002F087
:103EF0001FFB1F230093F023F0220021002001F07C
:103F000027FD0C37BD4690BDF40200200D030020B4
:103F1000141000200000002048A1000858A100084B
:103F200060A1000868A1000870A1000878A100083D
:103F300080A1000890B587B004AF0346FB71FB7900
:103F4000002B03D0244B00221A7042E0224B1B7836
:103F5000002B10D1214B6C4603F1A80292E803001C
:103F600084E80300A0330CCB00210020FFF704FC01
:103F7000194B01221A701A4B00229A6000BF184B8D
:103F80009B68B3F5967FFADD00230293202301930B
:103F900041F65D3300934FF6E073124AB4211220CC
:103FA00002F01EFA0E4B00229A6000BF0C4B9B6879
:103FB000B3F5967FFADD002302932023019341F6A7
:103FC0005D3300934FF6E073074AB421122002F0EC
:103FD00007FA0C37BD4690BD0E03002000000020FC
:103FE0001410002088A1000898A10008000000001B
:103FF0002DE9B0438AB000AFC7E902014FF00002DB
:104000004FF00003C7E90823D7E90223C7E90623D5
:1040100001237B61D7E90623D7E90801FCF79EF865
:1040200002460B46C7E908237B6901337B61BB6904
:104030003B60FB6983F000437B60D7E90223D7E94B
:104040000001FCF741FA02460B4610461946D7E933
:104050000223FCF739FA02460B46904699467B69E3
:104060005B00013B1846FCF7C5F902460B4640468B
:104070004946FCF753FB02460B46904699467B693E
:10408000013B5B001846FCF7B5F902460B4640467B
:104090004946FCF743FB02460B46C7E90623BC69C9
:1040A000FB6923F000450AA3D3E9002320462946F3
:1040B000FCF790FC0346002BACD1D7E9082310464F
:1040C00019462837BD46BDE8B08300BFAFF3008076
:1040D0008DEDB5A0F7C6B03E80B582B000AFC7E9A0
:1040E000000115A3D3E90023D7E90001FCF736F856
:1040F00002460B46C7E900230FA3D3E90023D7E903
:104100000001FCF771FC0346002B0AD00CA3D3E995
:104110000023D7E90001FCF71FF802460B46C7E968
:104120000023D7E90001FFF763FF02460B46104664
:1041300019460837BD4680BDF1D4C853FB2109405C
:10414000F1D4C853FB21194080B584B000AF0023DF
:10415000FB600023BB60A64B93F90030012B40F0BD
:1041600027810023FB601BE1B868FCF743F99CA39F
:10417000D3E90023FCF7A8F902460B46104619467E
:104180004FF000029B4BFCF7C9FA02460B46104663
:104190001946FFF72DFF4FF00002974BFCF794F9FB
:1041A00002460B46104619464FF00002924BFBF7B1
:1041B000D5FF02460B46104619464FF000028F4BC2
:1041C000FCF782F902460B46104619464FF00002F2
:1041D0008B4BFCF7A3FA02460B4610461946FCF738
:1041E0000DFC034619B2874AFB6822F81310BB681E
:1041F0005A3B854A82FB03121A441112DA178A1AB3
:104200004FF4B47101FB02F29A1A1046FCF7F2F86F
:1042100073A3D3E90023FCF757F902460B46104677
:1042200019464FF00002734BFCF778FA02460B4632
:1042300010461946FFF7DCFE02460B46FBF78EFFE1
:1042400002460B461046194667A3D3E90023FCF744
:104250003BF902460B46104619464FF000026B4BE5
:10426000FCF732F902460B4610461946FCF7C6FB2E
:10427000034659B2664AFB6813440A461A70B86886
:10428000FCF7B8F856A3D3E90023FCF71DF9024662
:104290000B46104619464FF00002564BFCF73EFA0B
:1042A00002460B4610461946FFF716FF4FF0000274
:1042B000514BFCF709F902460B46104619464FF0E0
:1042C00000024D4BFBF74AFF02460B4610461946CB
:1042D0004FF00002494BFCF7F7F802460B46104638
:1042E00019464FF00002464BFCF718FA02460B46FF
:1042F00010461946FCF782FB034619B2454AFB6893
:1043000022F81310BB685A3B3F4A82FB03121A443F
:104310001112DA178A1A4FF4B47101FB02F29A1AD9
:104320001046FCF767F82EA3D3E90023FCF7CCF87E
:1043300002460B46104619464FF000022D4BFCF783
:10434000EDF902460B4610461946FFF7C5FE024638
:104350000B46FBF703FF02460B461046194622A305
:10436000D3E90023FCF7B0F802460B461046194685
:104370004FF00002254BFCF7A7F802460B4610460B
:104380001946FCF73BFB034659B2234AFB6813442A
:104390000A461A70BB680133BB60FB680133FB60DF
:1043A000FB68B3F5B47FFFF6DFAE114B00221A7045
:1043B0001A4B1B881A464FF4A07393FBF2F39AB280
:1043C000174B1A80174BB3F900309BB21A46920074
:1043D00013445B009AB2144B1A800023FB6068E020
:1043E000F1D4C853FB210940333333333333D33F44
:1043F0004A0200200080664000408F4000003940A3
:1044000000409F4010030020B7600BB6000014402E
:10441000E005002048070020180A00204C02002078
:10442000800B0020820B0020840B0020A64B1B88F1
:104430001A46FB6803FB02F3A44A12881344A44AF9
:1044400082FB03121A441112DA178A1A4FF4B4715C
:1044500001FB02F29B1A7B609E4A7B6832F91330A3
:1044600059B29D4AFB6802F823109C4A7B681344AA
:1044700093F90010984AFB689B0013440A465A704F
:10448000974A7B6832F9133059B2934AFB689B0014
:1044900013440A469A70934A7B68134493F90010B8
:1044A0008D4AFB689B0013440A46DA70FB680133AF
:1044B000FB60FB68072BB9DD844B1B88DA088A494F
:1044C000A1FB021292084FF4B47101FB02F29B1A95
:1044D0009BB2002B05D1854B1B780133DAB2834B9D
:1044E0001A70824B1B78012B05D1814B00221A8058
:1044F0007E4B00221A707E4BB3F900309BB2013321
:104500009BB21AB27A4B1A800023FB609EE0794B73
:104510001B689AB2FB689BB27749096889B201FBB4
:1045200003F39BB2134498B2744AFB6812F9233028
:104530009AB2734B1B689BB2134499B26F4AFB68E3
:104540009B00134493F901300533DA0F13445B10D9
:10455000DAB241F65D3301F033FC664B1B689AB268
:10456000FB689BB26449096889B201FB03F39BB203
:10457000134498B2584AFB6812F923309AB2604B40
:104580001B689BB2134499B2534AFB689B001344C7
:1045900093F901300533DA0F13445B10DAB24FF6AA
:1045A000FF7301F00DFC534B1B689AB2FB689BB282
:1045B0005149096889B201FB03F39BB2134498B2D5
:1045C0004E4AFB689B00134493F902309AB24C4B5D
:1045D0001B689BB2134499B2484AFB689B00134482
:1045E00093F903300533DA0F13445B10DAB241F666
:1045F0005D3301F0E5FB3F4B1B689AB2FB689BB251
:104600003D49096889B201FB03F39BB2134498B298
:10461000314AFB689B00134493F902309AB2384B3D
:104620001B689BB2134499B22B4AFB689B0013444E
:1046300093F903300533DA0F13445B10DAB24DF609
:10464000FB6301F0BDFBFB680133FB60FB68072BDC
:104650007FF75DAF0023FB602EE01F4AFB6812F975
:104660002310264AFB6802F823101B4AFB689B00B4
:10467000134493F90110214AFB689B0013440A4636
:104680005A70154AFB689B00134493F902101B4AA9
:10469000FB689B0013440A469A700F4AFB689B0014
:1046A000134493F90310154AFB689B0013440A4610
:1046B000DA70FB680133FB60FB68072BCDDD00BFC0
:1046C0001037BD4680BD00BF800B0020840B00204A
:1046D000B7600BB610030020880B0020E005002017
:1046E00048070020180A0020176CC116A80B0020EC
:1046F000820B00205002002054020020AC0B00204E
:104700005802002080B582B000AF0023FB7100206A
:10471000FCF7DAFC03461A4640F61D139A4208D904
:104720000120FCF7D1FC8E4B1B78012B01D000F04F
:10473000DFFF8C4B1B78012B1DD10020FCF706FD01
:104740000346002B05D10120FCF700FD854B00221C
:104750001A700020FCF7FAFC0346642B0BD90120E9
:10476000FCF7F4FC804804F03BFD804B1B689B6821
:10477000184604F0E9FA0020FCF7E8FC0346B3F51C
:104780007A7F09D9774B1B78002B05D10120FCF7E4
:10479000DDFC744B01221A70754B1B78012B1DD167
:1047A0000020FCF715FD0346002B05D10120FCF786
:1047B0000FFD6F4B00221A700020FCF709FD034625
:1047C000642B0BD90120FCF703FD6A4804F008FDB7
:1047D000664B1B689B68184604F0B6FA0020FCF78D
:1047E000F7FC0346B3F57A7F09D9614B1B78002BA0
:1047F00005D10120FCF7ECFC5D4B01221A705E4BE9
:104800001B78012B1DD10020FCF764FD0346002B13
:1048100005D10120FCF75EFD574B00221A700020E5
:10482000FCF758FD0346642B0BD90120FCF752FD21
:10483000524804F0D5FC4D4B1B689B68184604F0A9
:1048400083FA0020FCF746FD0346B3F57A7F09D9C9
:10485000494B1B78002B05D10120FCF73BFD464B53
:1048600001221A70464B1B78012B1DD10020FCF74A
:10487000EFFC0346002B05D10120FCF7E9FC404B7F
:1048800000221A700020FCF7E3FC0346642B0BD9CE
:104890000120FCF7DDFC3B4804F0A2FC334B1B6815
:1048A0009B68184604F050FA0020FCF7D1FC034640
:1048B000B3F57A7F09D9324B1B78002B05D1012043
:1048C000FCF7C6FC2E4B01221A700020FCF7F4FA0C
:1048D0000346FB71FB79002B3CD0FB79013B082B95
:1048E00039D801A252F823F00D49000815490008F3
:1048F0001D490008254900082D49000835490008D0
:104900003D490008454900084D490008164804F093
:1049100067FC20E0174804F063FC1CE0194804F031
:104920005FFC18E0154804F05BFC14E0164804F046
:1049300057FC10E0154804F053FC0CE0144804F058
:104940004FFC08E0134804F04BFC04E0124804F06C
:1049500047FC00E000BF00BF0837BD4680BD00BF78
:1049600048020020CC0B0020A8A1000874020020FF
:10497000CD0B0020B8A10008CE0B0020C8A1000874
:10498000CF0B0020D8A10008E8A10008F8A100087A
:1049900008A2000818A200082CA2000890B589B04F
:1049A00004AF0346FB710023BB730020FCF78CFBB4
:1049B00003461A4640F6B8339A4240F28B80FB79A0
:1049C000012B40F08780454804F00AFC444B1B68EB
:1049D0009B68184604F0B8F90120FCF775FB00BF8E
:1049E000022000F09DF90346002BF9D0012000F0D1
:1049F00097F90346BB81BB8919463A4804F06AFB24
:104A0000374B1B689B68184604F09EF9BB89B3F5C9
:104A1000616F53D8344B6C4603F1980292E803005F
:104A200084E8030090330CCB59213620FEF7A4FE16
:104A30000023FB733BE0BB8919462C4804F04AFB7A
:104A4000274B1B689B68184604F07EF9284B002210
:104A50009A600DE0002302931423019341F65D3325
:104A600000934FF6FF73234AB4211E2001F0B8FCD7
:104A70001F4B9B68B3F5967FECDD1D4B00229A60BF
:104A80000DE0002302931423019341F65D3300935C
:104A90004FF6FF73184AB4211E2001F0A1FC144BFD
:104AA0009B68B3F5967FECDDFB7B0133FB73FB7BEF
:104AB000042BC0D90120FFF769F80BE00F4B01224E
:104AC0001A700F4B01221A700120FFF7FBF801202A
:104AD000FFF75CF800BF1437BD4690BD3CA200084C
:104AE0007402002054A20008000000206CA20008FC
:104AF000141000208CA20008A0A2000805030020CA
:104B00004802002080B500AF4FF400411148FDF786
:104B100077FA0346002B0FD00F4B01221A700020AA
:104B2000FEF70CFE0020FEF7AFFD0C4B1B689B68E8
:104B3000184604F009F90BE0032000F0F1F80346F1
:104B4000002B05D10420FEF79FFD034B00221A70B5
:104B500000BF80BD000C014007030020740200204C
:104B6000B0B582B000AF0346FB71FB79012B02D1D7
:104B7000634B1B78BCE0634B1B78002B40F0B58087
:104B80000120FCF707F803461846FBF733FC044600
:104B90000D4601211120FCF727F803461846FBF7C4
:104BA00029FC02460B464FF033305749FBF7B6FD60
:104BB00002460B4620462946FBF786FC02460B467A
:104BC000104619464FF00002504BFBF77DFC0246A1
:104BD0000B461046194648A3D3E90023FBF774FCA3
:104BE00002460B4610461946FBF730FF03469BB2C0
:104BF00040F6AC52934222D9414B1B78002B03D094
:104C00003F4B1B78022B1AD14FF400414048FDF76F
:104C1000F7F90346002B12D1394B01221A703D4897
:104C200004F0DEFA0020FEF789FD0420FEF72CFDDB
:104C3000394B1B689B68184604F086F858E0012041
:104C4000FBF7A8FF03461846FBF7D4FB04460D46C6
:104C500001211120FBF7C8FF03461846FBF7CAFBEA
:104C600002460B464FF033302749FBF757FD02460B
:104C70000B4620462946FBF727FC02460B4610460A
:104C800019464FF00002214BFBF71EFC02460B4673
:104C90001046194618A3D3E90023FBF715FC02467A
:104CA0000B4610461946FBF7D1FE03469BB2B3F5FF
:104CB000FA6F1DD8124B1B78012B03D0104B1B78B9
:104CC000022B15D10E4B00221A70144804F088FAFA
:104CD0000020FEF733FD0020FEF7D6FC0E4B1B68CC
:104CE0009B68184604F030F802E0054B02221A7067
:104CF00018460837BD46B0BDACAAAAAAAAAAFA3F70
:104D0000D00B0020070300203333F33F00408F40D7
:104D1000000C0140B4A2000874020020C0A20008E8
:104D2000B0B584B000AF0346FB71FB79032B07D10C
:104D30008D4B1B78012B01D1012392E1002390E1DF
:104D4000FB79012B02D1894B1B888AE1FB79002B6F
:104D50007ED1854B1B78002B0AD1854B1B78002B0D
:104D600006D1844B00221A62814B01221A706FE037
:104D70007D4B1B78002B1DD17D4B1B78012B19D14E
:104D80007C4B1B6A42F20F72934213DC0120FFF747
:104D9000E7FE0346002B03D0774B1B78012B56D13F
:104DA000714B01221A70724B00221A70734B002251
:104DB0001A704CE06C4B1B78002B16D16C4B1B7897
:104DC000012B12D16B4B1B6A42F20F7293420CDD26
:104DD0000020FEF759FC644B01221A70644B00223C
:104DE0001A70664B00221A7032E05F4B1B78012B61
:104DF0000AD15F4B1B78002B06D15E4B00221A6252
:104E00005B4B01221A7023E0574B1B78012B1FD1FB
:104E1000574B1B78012B1BD1564B1B6A40F2DB52C0
:104E2000934215DD012000F097F90346FB814F4ABC
:104E3000FB891380514B01221A700420FEF724FCD9
:104E4000494B00221A704A4B00221A7000E000BF42
:104E5000FB79022B40F09880444B1B88002B01D03B
:104E60000123FEE0404B1B78002B0FD1404B012269
:104E70001A700020FEF708FC3B4B01221A703C4BD5
:104E800000221A703D4B00221A7063E0364B1B78EB
:104E9000012B0AD1364B1B78002B06D1354B002253
:104EA0001A62334B01221A7054E02F4B1B78012BEE
:104EB00050D12F4B1B78012B4CD12E4B1B6A40F24B
:104EC000DB52934246DD64210220FBF78DFE034650
:104ED0001846FBF78FFA04460D4601211120FBF717
:104EE00083FE03461846FBF785FA02460B464FF051
:104EF00033302349FBF712FC02460B462046294675
:104F0000FBF7E2FA02460B46104619464FF0000244
:104F10001C4BFBF7D9FA02460B461046194610A364
:104F2000D3E90023FBF7D0FA02460B461046194698
:104F3000FBF78CFD03469AB20C4B1A800F4B0122F3
:104F40001A700420FEF7A0FB074B00221A70084BD2
:104F500000221A70094B1B789BB282E0AFF30080ED
:104F6000545555555555F53FD10B0020D20B002017
:104F7000D40B00201410002007030020D50B0020C4
:104F80003333F33F00408F403B4B1B8840F6485281
:104F900093425DD8394B1B78002B59D1384B1B7885
:104FA000002B55D1374B00221A6200BF354B1B6ACC
:104FB000052BFBDD64210220FBF716FE0346184695
:104FC000FBF718FA04460D4601211120FBF70CFEF1
:104FD00003461846FBF70EFA02460B464FF03330F5
:104FE0002949FBF79BFB02460B4620462946FBF767
:104FF0006BFA02460B46104619464FF00002234B4F
:10500000FBF762FA02460B461046194618A3D3E98D
:105010000023FBF759FA02460B4610461946FBF7E8
:1050200015FD03469BB240F64852934210D801202A
:10503000FFF796FD0346002B0AD1154804F0D0F87F
:105040000120FEF73FFE0120FEF7A0FD00F050FB1F
:10505000104B1B78012B04D10E4B00221A7000F06C
:1050600047FB18461037BD46B0BD00BFAFF3008008
:10507000545555555555F53FD20B0020D10B002006
:10508000D40B0020141000203333F33F00408F4036
:10509000D0A200080603002080B584B002AF03460A
:1050A000FB80FB8840F6327293420BD9F888642368
:1050B0000093502341F2680240F6327100F02CFC5C
:1050C000034644E0FB8840F6746293420BD9F888AB
:1050D000502300933C2340F6327240F6746100F096
:1050E0001BFC034633E0FB8840F6F25293420BD997
:1050F000F8883C230093282340F6746240F6F2516E
:1051000000F00AFC034622E0FB8840F6B6529342C8
:105110000BD9F88828230093142340F6F25240F666
:10512000B65100F0F9FB034611E0FB8840F66652E9
:1051300093420BD9F88814230093052340F6B65206
:1051400040F6665100F0E8FB034600E001231846F4
:105150000837BD4680BD0000B0B584B000AF03463F
:10516000FB71FB79002B39D164210220FBF73CFD58
:1051700003461846FBF73EF904460D46012111206F
:10518000FBF732FD03461846FBF734F902460B469F
:105190004FF033309849FBF7C1FA02460B462046E0
:1051A0002946FBF791F902460B46104619464FF087
:1051B0000002924BFBF788F902460B46104619464F
:1051C00089A3D3E90023FBF77FF902460B4610467B
:1051D0001946FBF73BFC03469BB2FEE0FB79012B33
:1051E00040F0B48064210220FBF7FEFC0346184621
:1051F000FBF700F904460D4601211120FBF7F4FCF2
:1052000003461846FBF7F6F802460B464FF03330DC
:105210007949FBF783FA02460B4620462946FBF7FD
:1052200053F902460B46104619464FF00002734BE5
:10523000FBF74AF902460B46104619466AA3D3E922
:105240000023FBF741F902460B4610461946FBF7CF
:10525000FDFB0346FB8164210220FBF7C5FC0346EE
:105260001846FBF7C7F804460D4601211120FBF74D
:10527000BBFC03461846FBF7BDF802460B464FF051
:1052800033305D49FBF74AFA02460B462046294671
:10529000FBF71AF902460B46104619464FF000027A
:1052A000564BFBF711F902460B46104619464EA322
:1052B000D3E90023FBF708F902460B4610461946CE
:1052C000FBF7C4FB0346BB813AE0BB89FB81642149
:1052D0000220FBF789FC03461846FBF78BF80446CF
:1052E0000D4601211120FBF77FFC03461846FBF712
:1052F00081F802460B464FF033303F49FBF70EFA78
:1053000002460B4620462946FBF7DEF802460B46CE
:10531000104619464FF00002384BFBF7D5F802460D
:105320000B461046194630A3D3E90023FBF7CCF80F
:1053300002460B4610461946FBF788FB0346BB8125
:10534000BA89FB899A42C0D3BB8946E0FB79022B1C
:1053500005D101211120FBF747FC03463DE0FB7915
:10536000032B39D102210120FBF73EFC03461846EE
:10537000FBF740F804460D4601211120FBF734FCF1
:1053800003461846FBF736F802460B464FF033301B
:105390001949FBF7C3F902460B4620462946FBF79D
:1053A00093F802460B46104619464FF00002134B85
:1053B000FBF78AF802460B46104619460CA3D3E9C0
:1053C0000023FBF781F802460B4610461946FBF70F
:1053D0003DFB03469BB200E0002318461037BD4654
:1053E000B0BD00BFAFF30080545555555555F53F3E
:1053F000ACAAAAAAAAAAFA3F3333F33F00408F40CF
:1054000080B584B000AF0346FB71FB79012B02D15C
:105410003C4B1B8872E03B4B1B88002B06D10120C4
:10542000FFF77EFC03461A46364B1A800120FFF731
:1054300077FC03461A46344B1A80334B1B88002BEB
:105440005CD0304B1B88002B58D02F4B1B881A4642
:105450002C4B1B88D31AFB60FB68012B0BDCFB6811
:10546000B3F1FF3F07DB294B42F210721A60284B61
:1054700001221A7016E0FB68002B06DD254AFB6846
:1054800092FBF3F31A46214B1A60FB68002B06DAF5
:10549000214AFB6892FBF3F31A461C4B1A601C4B23
:1054A00001221A701A4B1B78002B03D11B4B0022D0
:1054B0005A6223E0194B5B6A1A46144B1B689A42E6
:1054C0001CD9164B00225A62114B00221A70FB683D
:1054D000002B05DD0B4B1B8801339AB2094B1A8058
:1054E000FB68002B05DA074B1B88013B9AB2054B82
:1054F0001A80FB68002B01D10023FFE71846103704
:10550000BD4680BDD60B0020D80B0020DC0B002050
:10551000E00B0020E0930400206CFBFF141000203F
:10552000B0B582B000AF0420FCF7D2FA03461A46A9
:105530004AF6CD339A4225D1614B1B689B681846C9
:1055400003F002FC0120FBF7BFFD0120FEF7BAFBD0
:105550000120FEF71BFB00210420FCF79DFA594BAC
:1055600001221A70584B00221A704FF4005157480C
:10557000FCF75FFD4FF4C87002F0C6FD544803F01D
:105580002FFE94E00120FBF705FB03461846FAF7CF
:1055900031FF04460D4601211120FBF725FB034690
:1055A0001846FAF727FF02460B464FF033304949B9
:1055B000FBF7B4F802460B4620462946FAF784FF6B
:1055C00002460B46104619464FF00002424BFAF7CE
:1055D0007BFF02460B461046194637A3D3E900234A
:1055E000FAF772FF02460B4610461946FBF72EFAF1
:1055F00003469BB240F6AC5293421DD9314B022276
:105600001A70364803F0ECFD2D4B1B689B6818465A
:1056100003F09AFB4BE00020FBF756FD0346002BFE
:105620000AD12F4803F0DCFD254B1B689B68184608
:1056300003F08AFB00F038F90020FBF745FD034634
:105640001A4640F2DB539A42E5D900BF0220FFF729
:1056500067FB0346002BF9D00120FFF761FB0346EF
:10566000FB80FB88B3F5616F0CD8FB8819461D4899
:1056700003F030FD124B1B689B68184603F064FB77
:1056800000F012F9184803F0ABFD0D4B1B689B6846
:10569000184603F059FB0120FBF716FD094B0122C8
:1056A0001A700120FEF70EFB0120FEF76FFA083793
:1056B000BD46B0BDAFF30080ACAAAAAAAAAAFA3F21
:1056C000740200200503002048020020000C014065
:1056D000E0A200083333F33F00408F40F0A20008FF
:1056E00014A3000838A300084CA300080000000021
:1056F000B0B582B000AF5A4803F072FD594B1B6839
:105700009B68184603F020FB0023FB71564803F00A
:1057100067FD544B1B689B68184603F015FB534B01
:1057200000229A6001E002F01BFC504B9B68B3F52D
:10573000FA7FF8DD4E4B1B78002B05D00023FB7160
:105740004B4B00221A7002E0FB790133FB71FB79AD
:10575000052B00D8DAE700BF464803F041FD464874
:1057600003F03EFD3F4B1B689B68184603F0ECFAC4
:105770003E4B00221A6002E00020FEF7F3FA3B4B9A
:105780001B6842F210729342F6DD3C4803F028FD9C
:10579000344B1B689B68184603F0D6FA4FF400514F
:1057A0003748FCF754FC4FF480713548FCF741FC56
:1057B0004FF400713248FCF73CFC0120FEF7D2FAAE
:1057C0000120FBF7E7F903461846FAF713FE0446F3
:1057D0000D4601211120FBF707FA03461846FAF798
:1057E00009FE02460B464FF033302649FAF796FF82
:1057F00002460B4620462946FAF766FE02460B464D
:10580000104619464FF000021F4BFAF75DFE0246A4
:105810000B461046194610A3D3E90023FAF754FEAD
:1058200002460B4610461946FBF710F903469BB299
:1058300040F6AC52934206D9144B02221A70012052
:10584000FEF7A4F901E000F02FF800BF0837BD46CD
:10585000B0BD00BFAFF30080ACAAAAAAAAAAFA3FC3
:1058600064A300087402002074A300081410002030
:105870000903002084A3000898A30008B0A300082F
:10588000000C01403333F33F00408F4005030020FC
:1058900080B400AF034B01221A7000BFBD4680BC2C
:1058A000704700BF0603002080B500AF114803F029
:1058B00097FC114B1B689B68184603F045FAFBF7F1
:1058C000E5F901214FF0C050FCF7A0FE0120FCF7E4
:1058D00055FC0A4B1B68094A23F480331360074BBD
:1058E0001B68064A23F480231360FCF757FC00BFB3
:1058F00080BD00BFB8A30008740200200010024061
:1059000080B400AF034B01221A7000BFBD4680BCBB
:10591000704700BF0903002080B485B000AFF86075
:10592000B9607A603B60FA68BB68D31AB9693A68B3
:105930008A1A02FB03F27968BB68CB1AB2FBF3F256
:105940003B68134418461437BD4680BC70470000BE
:1059500090B587B000AF0446084611461A46234664
:10596000FB800346BB800B467B8013463B800123B4
:10597000FB823B8D3B817A88FB88D31A3988BA88B1
:105980008A1A02FB03F33B613B69002B63D07B88DF
:10599000013B9AB23B88013B9BB2B988F88800F082
:1059A000ABFE00212E48FCF79CFF2D4B1B889BB2C1
:1059B0002B4A43F400639BB2138001212848FCF773
:1059C00090FF10212748FCF742FB2CE03B694FF683
:1059D000FE72934208D93B69A3F57F43FE3B3B61CE
:1059E0004FF6FE73FB6003E00023FB823B69FB6024
:1059F00007F10802FB689BB21B491C48FDF7ACFC91
:105A0000012202211648FCF78BFF1848FDF744FDE0
:105A10004FF40070FCF7C2F90346002BF8D04FF4A6
:105A20000070FCF7E3F9FB8A002BCFD110210D4861
:105A3000FCF7FFFA00210A48FCF753FF084B1B88CC
:105A40009BB2074A23F400639BB2138001210448F0
:105A5000FCF747FF00E000BF1C37BD4690BD00BF0C
:105A600000300140000801400C300140300002408D
:105A700080B582B000AF0346FB800B46BB80134667
:105A80007B80BB88FA88B988F88800F035FE7B886F
:105A9000184600F0F1FD00BF0837BD4680BD80B557
:105AA00086B000AF78600B467B8013463B8040F2A7
:105AB000E733BB8240F2E7337B8200237B74002311
:105AC0003B740023FB753FE03B7C002B40D1FB7D0A
:105AD0007A6813441B787B730023BB752EE07B7CB4
