:020000040800F2
:10000000005000209D0A0008C58A0008D18A000817
:10001000E98A0008EF8A0008F58A0008000000005D
:10002000000000000000000000000000FB8A000843
:10003000078B000800000000138B00081F8B0008CE
:10004000E10A0008E10A0008E10A0008E10A0008E4
:10005000E10A0008E10A0008E10A0008E10A0008D4
:10006000E10A0008E10A0008E10A0008E10A0008C4
:10007000E10A00082D8B0008E10A0008E10A0008E7
:10008000E10A0008E10A0008E10A0008E10A0008A4
:10009000E10A0008E10A0008E10A0008E10A000894
:1000A000E10A0008E10A0008E10A0008E10A000884
:1000B0003D8A0008E10A0008E10A0008E10A000898
:1000C000E10A0008E10A0008E10A0008E10A000864
:1000D000E10A0008917F0008E10A0008E10A00082F
:1000E000E10A0008E10A0008E10A00080000000037
:1000F0000000000000000000000000000000000000
:0C01000000000000000000005FF808F1A3
:02010C000101EF
:1001100010B5054C237833B9044B13B10448AFF341
:1001200000800123237010BDD802002000000000D1
:100130000C01000808B5034B1BB103490348AFF39A
:10014000008008BD00000000DC0200200C01000857
:1001500081F0004102E000BF83F0004330B54FEA78
:1001600041044FEA430594EA050F08BF90EA020FE5
:100170001FBF54EA000C55EA020C7FEA645C7FEA78
:10018000655C00F0E2804FEA5454D4EB5555B8BF9B
:100190006D420CDD2C4480EA020281EA030382EA0C
:1001A000000083EA010180EA020281EA0303362D9E
:1001B00088BF30BD11F0004F4FEA01314FF4801C71
:1001C0004CEA113102D0404261EB410113F0004F83
:1001D0004FEA03334CEA133302D0524263EB43033A
:1001E00094EA050F00F0A780A4F10104D5F1200ED8
:1001F0000DDB02FA0EFC22FA05F2801841F1000133
:1002000003FA0EF2801843FA05F359410EE0A5F106
:1002100020050EF1200E012A03FA0EFC28BF4CF037
:10022000020C43FA05F3C01851EBE37101F00045ED
:1002300007D54FF0000EDCF1000C7EEB00006EEBFA
:100240000101B1F5801F1BD3B1F5001F0CD3490884
:100250005FEA30004FEA3C0C04F101044FEA4452DB
:1002600012F5800F80F09A80BCF1004F08BF5FEA62
:10027000500C50F1000041EB045141EA050130BD42
:100280005FEA4C0C404141EB0101013C28BFB1F554
:10029000801FE9D291F0000F04BF01460020B1FA9F
:1002A00081F308BF2033A3F10B03B3F120020CDA72
:1002B0000C3208DD02F1140CC2F10C0201FA0CF050
:1002C00021FA02F10CE002F11402D8BFC2F1200CB5
:1002D00001FA02F120FA0CFCDCBF41EA0C0190406B
:1002E000E41AA2BF01EB0451294330BD6FEA0404B4
:1002F0001F3C1CDA0C340EDC04F11404C4F120029F
:1003000020FA04F001FA02F340EA030021FA04F3B0
:1003100045EA030130BDC4F10C04C4F1200220FA07
:1003200002F001FA04F340EA0300294630BD21FA45
:1003300004F0294630BD94F0000F83F4801306BF0B
:1003400081F480110134013D4EE77FEA645C18BFFF
:100350007FEA655C29D094EA050F08BF90EA020F96
:1003600005D054EA000C04BF1946104630BD91EA8E
:10037000030F1EBF0021002030BD5FEA545C05D191
:100380004000494128BF41F0004130BD14F58004D0
:100390003CBF01F5801130BD01F0004545F0FE4144
:1003A00041F470014FF0000030BD7FEA645C1ABF79
:1003B000194610467FEA655C1CBF0B46024650EAB0
:1003C000013406BF52EA033591EA030F41F40021DC
:1003D00030BD00BF90F0000F04BF0021704730B562
:1003E0004FF4806404F132044FF000054FF0000137
:1003F00050E700BF90F0000F04BF0021704730B5F8
:100400004FF4806404F1320410F0004548BF4042CC
:100410004FF000013EE700BF42004FEAE2014FEA21
:1004200031014FEA02701FBF12F07F4393F07F4FFC
:1004300081F06051704732F07F4208BF704793F0FF
:100440007F4F04BF41F40021704730B54FF4607412
:1004500001F0004521F000411CE700BF50EA010215
:1004600008BF704730B54FF000050AE050EA0102BE
:1004700008BF704730B511F0004502D5404261EB2E
:1004800041014FF4806404F132045FEA915C3FF46F
:10049000D8AE4FF003025FEADC0C18BF03325FEA0C
:1004A000DC0C18BF033202EBDC02C2F1200300FABD
:1004B00003FC20FA02F001FA03FE40EA0E0021FAE2
:1004C00002F11444BDE600BF70B54FF0FF0C4CF4D0
:1004D000E06C1CEA11541DBF1CEA135594EA0C0F82
:1004E00095EA0C0F00F0DEF82C4481EA030621EABD
:1004F0004C5123EA4C5350EA013518BF52EA0335F8
:1005000041F4801143F4801338D0A0FB02CE4FF0A9
:100510000005E1FB02E506F00042E0FB03E54FF0D9
:100520000006E1FB03569CF0000F18BF4EF0010ED1
:10053000A4F1FF04B6F5007F64F5407404D25FEACD
:100540004E0E6D4146EB060642EAC62141EA555180
:100550004FEAC52040EA5E504FEACE2EB4F1FD0CC2
:1005600088BFBCF5E06F1ED8BEF1004F08BF5FEA40
:10057000500E50F1000041EB045170BD06F00046F2
:1005800046EA010140EA020081EA0301B4EB5C049F
:10059000C2BFD4EB0C0541EA045170BD41F4801197
:1005A0004FF0000E013C00F3AB8014F1360FDEBFBC
:1005B000002001F0004170BDC4F10004203C35DA98
:1005C0000C341BDC04F11404C4F1200500FA05F31B
:1005D00020FA04F001FA05F240EA020001F00042BC
:1005E00021F0004110EBD37021FA04F642EB060132
:1005F0005EEA430E08BF20EAD37070BDC4F10C045C
:10060000C4F1200500FA04F320FA05F001FA04F21F
:1006100040EA020001F0004110EBD37041F100010B
:100620005EEA430E08BF20EAD37070BDC4F1200516
:1006300000FA05F24EEA020E20FA04F301FA05F27E
:1006400043EA020321FA04F001F0004121FA04F226
:1006500020EA020000EBD3705EEA430E08BF20EAF6
:10066000D37070BD94F0000F0FD101F00046400030
:1006700041EB010111F4801F08BF013CF7D041EAB2
:10068000060195F0000F18BF704703F000465200B6
:1006900043EB030313F4801F08BF013DF7D043EA87
:1006A0000603704794EA0C0F0CEA135518BF95EA3D
:1006B0000C0F0CD050EA410618BF52EA4306D1D1C4
:1006C00081EA030101F000414FF0000070BD50EAE3
:1006D000410606BF1046194652EA430619D094EA6D
:1006E0000C0F02D150EA013613D195EA0C0F05D157
:1006F00052EA03361CBF104619460AD181EA0301AB
:1007000001F0004141F0FE4141F470014FF0000062
:1007100070BD41F0FE4141F4780170BD70B54FF0FD
:10072000FF0C4CF4E06C1CEA11541DBF1CEA13557D
:1007300094EA0C0F95EA0C0F00F0A7F8A4EB05045F
:1007400081EA030E52EA03354FEA013100F0888056
:100750004FEA03334FF0805545EA131343EA12631F
:100760004FEA022245EA111545EA10654FEA0026D4
:100770000EF000419D4208BF964244F1FD0404F58D
:10078000407402D25B084FEA3202B61A65EB0305E9
:100790005B084FEA32024FF480104FF4002CB6EBA6
:1007A000020E75EB030E22BFB61A754640EA0C0026
:1007B0005B084FEA3202B6EB020E75EB030E22BF66
:1007C000B61A754640EA5C005B084FEA3202B6EBA7
:1007D000020E75EB030E22BFB61A754640EA9C0066
:1007E0005B084FEA3202B6EB020E75EB030E22BF36
:1007F000B61A754640EADC0055EA060E18D04FEAF4
:10080000051545EA16754FEA06164FEAC30343EA93
:1008100052734FEAC2025FEA1C1CC0D111F4801F60
:100820000BD141EA00014FF000004FF0004CB6E759
:1008300011F4801F04BF01430020B4F1FD0C88BFF8
:10084000BCF5E06F3FF6AFAEB5EB030C04BFB6EB03
:10085000020C5FEA500C50F1000041EB045170BDF6
:100860000EF0004E4EEA113114EB5C04C2BFD4EB23
:100870000C0541EA045170BD41F480114FF0000EA7
:10088000013C90E645EA060E8DE60CEA135594EA23
:100890000C0F08BF95EA0C0F3FF43BAF94EA0C0F26
:1008A0000AD150EA01347FF434AF95EA0C0F7FF49B
:1008B00025AF104619462CE795EA0C0F06D152EAEF
:1008C00003353FF4FDAE1046194622E750EA4106D3
:1008D00018BF52EA43067FF4C5AE50EA41047FF4E4
:1008E0000DAF52EA43057FF4EBAE12E74FF0FF3C49
:1008F00006E000BF4FF0010C02E000BF4FF0010C1A
:100900004DF804CD4FEA410C7FEA6C5C4FEA430C92
:1009100018BF7FEA6C5C1BD001B050EA410C0CBFE1
:1009200052EA430C91EA030F02BF90EA020F002043
:10093000704710F1000F91EA030F58BF994208BFAA
:1009400090422CBFD8176FEAE37040F00100704767
:100950004FEA410C7FEA6C5C02D150EA013C07D1BE
:100960004FEA430C7FEA6C5CD6D152EA033CD3D009
:100970005DF8040B704700BF8446104662468C4603
:100980001946634600E000BF01B5FFF7B7FF002836
:1009900048BF10F1000F01BD4DF808EDFFF7F4FF5F
:1009A0000CBF012000205DF808FB00BF4DF808EDEA
:1009B000FFF7EAFF34BF012000205DF808FB00BF0D
:1009C0004DF808EDFFF7E0FF94BF012000205DF82F
:1009D00008FB00BF4DF808EDFFF7CEFF94BF0120E4
:1009E00000205DF808FB00BF4DF808EDFFF7C4FFDD
:1009F00034BF012000205DF808FB00BF4FEA410230
:100A000012F5001215D211D56FF47873B3EB625260
:100A100012D94FEAC12343F0004343EA505311F087
:100A2000004F23FA02F018BF404270474FF0000019
:100A3000704750EA013005D111F0004008BF6FF057
:100A4000004070474FF00000704700BF4A0011D2CD
:100A500012F5001211D20DD56FF47873B3EB625218
:100A60000ED44FEAC12343F0004343EA505323FA24
:100A700002F070474FF00000704750EA013002D199
:100A80004FF0FF3070474FF000007047034613F8F7
:100A9000012B002AFBD1181A01387047002103E00E
:100AA0000A4B5B584350043109480A4B42189A429A
:100AB000F6D3094A02E0002342F8043B074B9A426E
:100AC000F9D308F055F807F063FF704700A9000854
:100AD00000000020D8020020D8020020941400203A
:100AE000FEE7000080B586B000AF01214FF4017031
:100AF00001F026FE4FF4004001F0E0FC0023FB7003
:100B000002233B803B461946204801F075FA042336
:100B10003B803B4619461D4801F06EFA1C4800F028
:100B20005BFD00237B6000233B7200237B724FF44C
:100B30006023FB6000233B6101233B753B1D19468D
:100B4000134800F083FD0121114800F0D1FD104849
:100B500000F0E9FD0A2007F0E5FA00BF0C4800F0BC
:100B6000F1FD0346002BF9D1094800F002FE00BF59
:100B7000074800F00DFE0346002BF9D1012000F0DC
:100B80000FFF00BF1837BD4680BD00BF0008014001
:100B90000024014080B582B000AF0346FB71F979B3
:100BA000072301220F4800F025FE01210D4800F027
:100BB00006FE00BF02210B4800F00EFF0346002B8B
:100BC000F8D00221074800F020FF1021054800F06E
:100BD0001CFF044800F0D7FE034618460837BD4600
:100BE00080BD00BF0024014080B584B000AF034643
:100BF0000A46FB711346BB71BB79002B01D1002360
:100C000019E00023FB600023FB720BE0FB79184620
:100C1000FFF7C0FF03461A46FB681344FB60FB7AEC
:100C20000133FB72FA7ABB799A42EFD3BB79FA6847
:100C3000B2FBF3F39BB218461037BD4680BD0000EF
:100C400080B582B000AF0121112001F079FD0120B3
:100C500001F03CFB002001F04DFC002000F0E4FE20
:100C60004FF40053BB801023FB710223BB713B1D6B
:100C70001946064801F0C0F94FF40051034801F04D
:100C80009EFA00BF0837BD4680BD00BF001001407E
:100C900080B500AF4FF40051024801F082FA00BF66
:100CA00080BD00BF0010014080B500AF4FF400517F
:100CB000024801F084FA00BF80BD00BF001001406F
:100CC00080B582B000AF0123FB710BE0FB791846C1
:100CD00000F022F80346012B01D0002318E0FB7935
:100CE0000133FB71FB790C2BF0D96523FB710BE011
:100CF000FB79184600F010F80346012B01D00023C1
:100D000006E0FB790133FB71FB79682BF0D90123F5
:100D100018460837BD4680BD80B483B000AF034697
:100D2000FB71FB79642B37D9FB79A3F1650230495C
:100D300013465B0013449B000B4408331B68002BD5
:100D400028D0FB79A3F16502294913465B001344BF
:100D50009B000B4404331B68002B1BD0FB79A3F1D1
:100D60006502234913465B0013449B000B44013387
:100D70001B78002B0ED0FB79A3F165021C491346AA
:100D80005B0013449B000B4402331B78002B01D003
:100D9000012328E0002326E0FB79013B154A1B01D3
:100DA000134408331B68002B1CD0FB79013B114A0C
:100DB0001B01134404331B68002B13D0FB79013B48
:100DC0000C4A1B0113440C331B88002B0AD0FB79FF
:100DD000013B084A1B0113440E331B88002B01D032
:100DE000012300E0002318460C37BD4680BC704745
:100DF000400100200000002080B582B000AF01213A
:100E00000D2001F09DFC0121324801F0E7F94FF47B
:100E10008053BB804823FB713B1D19462E4801F0CF
:100E2000EBF84FF40043BB804823FB713B1D194690
:100E3000294801F0E1F80823BB804823FB713B1DE2
:100E40001946264801F0D8F81023BB804823FB71CF
:100E50003B1D1946214801F0CFF82023BB804823D1
:100E6000FB713B1D19461D4801F0C6F84023BB80AD
:100E70004823FB713B1D1946184801F0BDF84FF49B
:100E80000063BB804823FB713B1D1946124801F0EB
:100E9000B3F84FF48063BB804823FB713B1D1946B8
:100EA0000E4801F0A9F80123BB802823FB713B1DEC
:100EB0001946094801F0A0F88023BB802823FB7164
:100EC0003B1D1946054801F097F800BF0837BD469D
:100ED00080BD00BF0002300000080140000C01404E
:100EE00080B582B000AF0346FB71FB79002B02D0C6
:100EF000794B01221A70784B1B78002B00F09E80F2
:100F00004FF40041754801F033F90346002B3AD005
:100F10001021734801F02CF90346002B33D04FF415
:100F200080516E4801F024F90346002B2BD020217C
:100F30006B4801F01DF90346002B24D008216848B6
:100F400001F016F90346002B1DD04021644801F042
:100F50000FF90346002B16D04FF400615F4801F0F3
:100F600007F90346002B0ED04FF480615C4801F076
:100F7000FFF80346002B06D08021594801F0F8F80D
:100F80000346012B5AD1052007F0CCF8524B002222
:100F90001A704FF40041514801F0EAF80346002B63
:100FA00001D1012393E010214D4801F0E1F80346FF
:100FB000002B01D102238AE04FF48051474801F011
:100FC000D7F80346002B01D1032380E020214448B9
:100FD00001F0CEF80346002B01D1042377E008216D
:100FE0003F4801F0C5F80346002B01D105236EE010
:100FF00040213B4801F0BCF80346002B01D10623F9
:1010000065E04FF40061354801F0B2F80346002B6B
:1010100001D107235BE08021314801F0A9F80346A4
:10102000012B01D1082352E04FF480612C4801F0DC
:101030009FF80346002B48D1092348E04FF40041B4
:10104000264801F095F80346012B3FD11021244892
:1010500001F08EF80346012B38D14FF480511F4820
:1010600001F086F80346012B30D120211C4801F005
:101070007FF80346012B29D10821194801F078F89F
:101080000346012B22D14021154801F071F8034697
:10109000012B1BD14FF40061104801F069F80346A1
:1010A000012B13D14FF480610D4801F061F8034624
:1010B000012B0BD180210A4801F05AF80346002B7E
:1010C00004D1054B01221A7000E000BF002318462E
:1010D0000837BD4680BD00BF300200200008014037
:1010E000000C014080B582B000AF0346FB71FB7974
:1010F000002B05D0184B00221A60184B00221A80D2
:101100008021174801F034F80346012B11D1052046
:1011100007F008F88021124801F02AF80346012B55
:1011200014D10D4B1B689AB20C4B1A800B4B1B88C9
:101130000DE080210A4801F01BF80346002B05D181
:10114000054B00221A60054B00221A800023184626
:101150000837BD4680BD00BF14100020FA020020F1
:10116000000C014080B582B000AF0346FB71FB79F3
:10117000002B05D0194B00221A61194B00221A804E
:101180004FF40041174800F0F3FF0346002B12D143
:10119000052006F0C7FF4FF40041124800F0E8FFB9
:1011A0000346002B15D10D4B1B699AB20C4B1A80CC
:1011B0000B4B1B880EE04FF400410A4800F0D8FFAB
:1011C0000346012B05D1054B00221A61044B002276
:1011D0001A80002318460837BD4680BD1410002031
:1011E000FC0200200008014080B582B000AF034639
:1011F000FB71FB79002B05D0184B00225A61184B6C
:1012000000221A801021174800F0B2FF0346002B7D
:1012100011D1052006F086FF1021124800F0A8FF2A
:101220000346002B14D10D4B5B699AB20C4B1A800C
:101230000B4B1B880DE010210A4800F099FF034674
:10124000012B05D1054B00225A61054B00221A8063
:10125000002318460837BD4680BD00BF141000208B
:10126000FE020020000C014080B582B000AF0346B2
:10127000FB71FB79002B05D0194B0022DA61194B69
:1012800000221A804FF48051174800F071FF034686
:10129000002B12D1052006F045FF4FF48051124873
:1012A00000F066FF0346002B15D10D4BDB699AB2A7
:1012B0000C4B1A800B4B1B880EE04FF480510A48F0
:1012C00000F056FF0346012B05D1054B0022DA61E1
:1012D000044B00221A80002318460837BD4680BD03
:1012E00014100020000300200008014080B582B0E7
:1012F00000AF0346FB71FB79002B05D0184B002291
:101300009A61184B00221A802021174800F030FF04
:101310000346002B11D1052006F004FF20211248BE
:1013200000F026FF0346002B14D10D4B9B699AB2A7
:101330000C4B1A800B4B1B880DE020210A4800F053
:1013400017FF0346012B05D1054B00229A61054B7F
:1013500000221A80002318460837BD4680BD00BF12
:101360001410002002030020000C0140B0B582B030
:1013700000AF0023FB710023BB7101214FF0C0506F
:1013800001F0FCF9012000F0A1FF082000F078FB3B
:1013900003461A4645F250039A420BD1412001F010
:1013A00047FA0346002B77D1612001F041FA03464A
:1013B000002B71D1012001F09DF805E0FB7901338C
:1013C000FB710A2006F0AEFE412001F031FA03461F
:1013D000002B02D1FB79F92BF0D9FB79F92B2AD913
:1013E0003B4807F00DFF3B4B1B689B68184607F016
:1013F000BBFC002001F07EF8012001F09BF80023E7
:10140000FB7105E0FB790133FB710A2006F08AFECF
:10141000612001F00DFA0346002B02D1FB79F92B74
:10142000F0D9FB79F92B01D901234DE04FF400707D
:1014300001F090F80EE0284807F0E2FE0123BB71AE
:10144000244B1B689B68184607F08EFC4FF4807095
:1014500001F080F8012001F08FF801F08BFA01F023
:101460009BFA01F01FFABB79012B04D147F6FF70FC
:1014700001F066FA03E049F6404001F061FA01F03C
:1014800079FA002000F02CF801F01CFA45F2500126
:10149000082000F0D9FA16E000F038F804464120A0
:1014A00001F0C6F903461D46612001F0C1F903466B
:1014B0002A462146094807F01DFE064B1B689B681B
:1014C000184607F051FC002318460837BD46B0BD4A
:1014D000F89F00087402002008A0000818A0000867
:1014E00080B582B000AF786001214FF0C05001F0AC
:1014F00045F9012000F0EAFE786801F009FA01F0F0
:1015000039FA002318460837BD4680BD80B500AFC4
:1015100001F0E8F90346184680BD000080B58AB0A6
:1015200000AF03460A46FB801346BB8001214FF4FF
:10153000006001F005F90121052001F001F9012108
:10154000224800F04BFE4FF48073BB84182387F8C9
:101550002730032387F8263007F1240319461C4857
:1015600000F04AFDFB88BB83BB883B830023FB83E1
:1015700000237B8307F118031946164801F0F6FB98
:1015800070233B8101237B810023BB813223FB81BC
:1015900000233B8208237B820023BB820023FB8243
:1015A00007F1080319460B4801F05CFC08210948C3
:1015B00001F04BFD0121074801F0FFFC0121054826
:1015C00001F0DCFC00BF2837BD4680BD400016009E
:1015D00000080140002C014080B582B000AF786067
:1015E0007B68174A93420AD101214FF4007001F041
:1015F000E3F800214FF4007001F0DEF81CE07B6896
:10160000104A93420AD101214FF4806001F0D4F8CE
:1016100000214FF4806001F0CFF80DE07B680A4AAA
:10162000934209D101214FF4004001F0C5F8002197
:101630004FF4004001F0C0F800BF0837BD4680BD40
:101640000024014000280140003C014080B485B0E6
:1016500000AF786039600023FB600023FB727B6879
:101660005B68FB60FB6823F4702323F48073FB60EA
:101670003B681A683B681B791B021343FA681343E3
:10168000FB607B68FA685A607B689B68FB60FA685D
:10169000164B1340FB603B68DA683B689B681A4353
:1016A0003B685B795B001343FA681343FB607B681C
:1016B000FA689A607B68DB6AFB60FB6823F470035E
:1016C000FB603B681B7C013BDAB2FB7A1343FB7285
:1016D000FB7A1B05FA681343FB607B68FA68DA62E1
:1016E00000BF1437BD4680BC704700BFFDF7F1FF57
:1016F00080B483B000AF78600B46FB70FB78002BA2
:1017000006D07B689B6843F001027B689A6005E025
:101710007B689B6823F001027B689A6000BF0C37EE
:10172000BD4680BC704780B483B000AF78607B68F2
:101730009B6843F008027B689A6000BF0C37BD4687
:1017400080BC704780B485B000AF78600023FB7325
:101750007B689B6803F00803002B02D00123FB7316
:1017600001E00023FB73FB7B18461437BD4680BCA9
:10177000704780B483B000AF78607B689B6843F0AB
:1017800004027B689A6000BF0C37BD4680BC70477E
:1017900080B485B000AF78600023FB737B689B68E2
:1017A00003F00403002B02D00123FB7301E00023AC
:1017B000FB73FB7B18461437BD4680BC704780B472
:1017C00083B000AF78600B46FB70FB78002B06D02F
:1017D0007B689B6843F4A0027B689A6005E07B68A5
:1017E0009B6823F4A0027B689A6000BF0C37BD465B
:1017F00080BC704780B485B000AF78600846114661
:101800001A460346FB700B46BB7013467B700023E1
:10181000FB600023BB60FB78092B23D97B68DB6866
:10182000FB60FB78A3F10A0213465B001344072216
:1018300002FA03F3BB60BB68DB43FA681340FB604A
:101840007978FB78A3F10A0213465B00134401FA8E
:1018500003F3BB60FA68BB681343FB607B68FA68FC
:10186000DA601EE07B681B69FB60FA7813465B0058
:101870001344072202FA03F3BB60BB68DB43FA6838
:101880001340FB607978FA7813465B00134401FA41
:1018900003F3BB60FA68BB681343FB607B68FA68BC
:1018A0001A61BB78062B21D87B685B6BFB60BB7829
:1018B0005A1E13469B0013441F2202FA03F3BB6017
:1018C000BB68DB43FA681340FB60F978BB785A1EAB
:1018D00013469B00134401FA03F3BB60FA68BB682C
:1018E0001343FB607B68FA685A6347E0BB780C2BB4
:1018F00021D87B681B6BFB60BB78DA1F13469B000B
:1019000013441F2202FA03F3BB60BB68DB43FA688F
:101910001340FB60F978BB78DA1F13469B00134431
:1019200001FA03F3BB60FA68BB681343FB607B6892
:10193000FA681A6322E07B68DB6AFB60BB78A3F17C
:101940000D0213469B0013441F2202FA03F3BB60EF
:10195000BB68DB43FA681340FB60F978BB78A3F1FE
:101960000D0213469B00134401FA03F3BB60FA68AF
:10197000BB681343FB607B68FA68DA6200BF143708
:10198000BD4680BC704780B483B000AF78607B6890
:10199000DB6C9BB218460C37BD4680BC704700001C
:1019A00080B483B000AF0346FB71FB79002B06D0F7
:1019B000084B9B68074A43F40003936005E0054B1E
:1019C0009B68044A23F40003936000BF0C37BD46B4
:1019D00080BC70470024014080B485B000AF7860BF
:1019E0000B46FB700023FB737B681A68FB7813407F
:1019F000002B02D00123FB7301E00023FB73FB7B70
:101A000018461437BD4680BC704780B483B000AF21
:101A100078600B46FB70FB78DA437B681A6000BF86
:101A20000C37BD4680BC704780B483B000AF03461E
:101A3000FB71044AFB79136000BF0C37BD4680BCC4
:101A4000704700BF00860D4280B485B000AF0346EA
:101A50000A46FB801346BB800023FB60074BFB60FC
:101A6000FA88FB681344FB60FB681A46BB88136066
:101A700000BF1437BD4680BC704700BF006C0040FB
:101A800080B485B000AF0346FB800023FB60074BAA
:101A9000FB60FA88FB681344FB60FB681B889BB201
:101AA00018461437BD4680BC704700BF006C00402C
:101AB00080B483B000AF78607B681A684FF6FE731D
:101AC00013407A6813607B6800221A607B680022EA
:101AD0005A607B6800229A607B680022DA607B682B
:101AE000434A934206D1434B5B68424A43F00F039B
:101AF000536077E07B68404A934206D13D4B5B6878
:101B00003C4A43F0F00353606CE07B683B4A9342ED
:101B100006D1384B5B68374A43F47063536061E029
:101B20007B68374A934206D1324B5B68314A43F4B3
:101B30007043536056E07B68324A934206D12D4B86
:101B40005B682C4A43F4702353604BE07B682E4A59
:101B5000934206D1274B5B68264A43F470035360D7
:101B600040E07B68294A934206D1224B5B68214AB8
:101B700043F07063536035E07B68254A934206D199
:101B8000244B5B68234A43F00F0353602AE07B68D1
:101B9000214A934206D11F4B5B681E4A43F0F00373
:101BA00053601FE07B681D4A934206D1194B5B6866
:101BB000184A43F47063536014E07B68184A9342F8
:101BC00006D1144B5B68134A43F47043536009E039
:101BD0007B68144A934205D10E4B5B680D4A43F46F
:101BE0007023536000BF0C37BD4680BC704700BFF8
:101BF00008000240000002401C0002403000024089
:101C000044000240580002406C0002408000024044
:101C100008040240000402401C0402403004024058
:101C2000440402405804024080B485B000AF78609C
:101C300039600023FB607B681B68FB60FB6823F452
:101C4000FF4323F07003FB603B689A683B681B6AA4
:101C50001A433B681B691A433B685B691A433B683C
:101C60009B691A433B68DB691A433B685B6A1A430A
:101C70003B689B6A1343FA681343FB607B68FA680E
:101C80001A603B68DA687B685A603B681A687B6850
:101C90009A603B685A687B68DA6000BF1437BD46BB
:101CA00080BC704780B483B000AF78607B6800224E
:101CB0001A607B6800225A607B6800229A607B6809
:101CC0000022DA607B6800221A617B6800225A6178
:101CD0007B6800229A617B680022DA617B680022BF
:101CE0001A627B6800225A627B6800229A6200BFF7
:101CF0000C37BD4680BC704780B483B000AF7860BD
:101D00000B46FB70FB78002B06D07B681B6843F00A
:101D100001027B681A6006E07B681A684FF6FE7362
:101D200013407A68136000BF0C37BD4680BC704713
:101D300080B483B000AF78600B467B807A887B6884
:101D40005A6000BF0C37BD4680BC704780B485B078
:101D500000AF78600023FB730023BB607B6803F057
:101D60008053002B03D00B4B1B68BB6002E00A4B77
:101D70001B68BB60BA687B681340002B02D001234C
:101D8000FB7301E00023FB73FB7B18461437BD4651
:101D900080BC7047000402400000024080B483B061
:101DA00000AF78607B6803F08053002B03D0064AB5
:101DB0007B68536002E0054A7B68536000BF0C37C4
:101DC000BD4680BC704700BF0004024000000240D6
:101DD00080B485B000AF78600023FB60094B1B68BE
:101DE000FB60FB6803F03803FB60FA687B68134311
:101DF000FB60044AFB68136000BF1437BD4680BC1B
:101E0000704700BF0020024080B483B000AF78600C
:101E1000084B1B68074A23F010031360054B1A6830
:101E200004497B6813430B6000BF0C37BD4680BC80
:101E3000704700BF0020024080B400AF044B054A49
:101E40005A60034B044A5A6000BFBD4680BC7047CD
:101E50000020024023016745AB89EFCD80B584B0F7
:101E600000AF0346FB710423FB734FF4302000F0F6
:101E7000A1F80346FB73FB7B042B4CD1284B294A6A
:101E80009A60274B284A9A60254B1B69244A43F0E5
:101E900020031361224B1B69214A43F04003136165
:101EA0004FF4302000F086F80346FB73FB7B042BD5
:101EB00027D11B4B1A691A4941F6DF7313400B6196
:101EC000174B1B69164A43F010031361FB79002B73
:101ED00003D0164B00221A8002E0144BA5221A8070
:101EE0004FF4302000F066F80346FB73FB7B052BB4
:101EF00011D00B4B1A690A4941F6EF7313400B617D
:101F000009E0FB7B052B06D0054B1A69044941F615
:101F1000DF7313400B61FB7B18461037BD4680BD55
:101F20000020024023016745AB89EFCD00F8FF1F79
:101F300080B483B000AF0023FB71084BDB6903F072
:101F40000203002B02D00123FB7101E00023FB718F
:101F5000FB7918460C37BD4680BC70470020024014
:101F600080B483B000AF0423FB71114BDB6803F036
:101F70000103012B02D10123FB7113E00C4BDB6841
:101F800003F00403002B02D00223FB710AE0084B8C
:101F9000DB6803F01003002B02D00323FB7101E088
:101FA0000423FB71FB7918460C37BD4680BC704793
:101FB0000020024080B584B000AF78600423FB733A
:101FC000FFF7CEFF0346FB7306E0FFF7C9FF0346AA
:101FD000FB737B68013B7B60FB7B012B02D17B6841
:101FE000002BF2D17B68002B01D10523FB73FB7B17
:101FF00018461037BD4680BD80B489B000AF786008
:1020000039600023FB6100233B610023BB61002397
:10201000FB6000237B610023BB603B68DB7803F03F
:102020000F03FB613B68DB7803F01003002B05D046
:102030003B689B781A46FB691343FB613B681B882E
:10204000DBB2002B44D07B681B687B610023BB6143
:1020500038E00122BB6902FA03F3FB603B681B888E
:102060001A46FB6813403B613A69FB689A4226D1E5
:10207000BB699B00FB600F22FB6802FA03F3BB60A5
:10208000BB68DB437A6913407B61FA69FB6802FA3B
:1020900003F37A6913437B613B68DB78282B05D116
:1020A0000122BB699A407B685A6108E03B68DB7893
:1020B000482B04D10122BB699A407B681A61BB6935
:1020C0000133BB61BB69072BC3D97B687A691A608E
:1020D0003B681B88FF2B46D97B685B687B610023CC
:1020E000BB613AE0BB690833012202FA03F3FB60EB
:1020F0003B681B881A46FB6813403B613A69FB68E2
:102100009A4227D1BB699B00FB600F22FB6802FA51
:1021100003F3BB60BB68DB437A6913407B61FA69F8
:10212000FB6802FA03F37A6913437B613B68DB784F
:10213000282B05D1BB69083301229A407B685A617C
:102140003B68DB78482B05D1BB69083301229A40F4
:102150007B681A61BB690133BB61BB69072BC1D9BD
:102160007B687A695A6000BF2437BD4680BC7047DF
:1021700080B485B000AF78600B467B800023FB7392
:102180007B689A687B881340002B02D00123FB7385
:1021900001E00023FB73FB7B18461437BD4680BC6F
:1021A000704780B483B000AF78600B467B807A883C
:1021B0007B681A6100BF0C37BD4680BC704780B495
:1021C00083B000AF78600B467B807A887B685A6169
:1021D00000BF0C37BD4680BC7047000080B487B09C
:1021E00000AF78600B46FB7000233B610023FB606F
:1021F00000237B610023BB607B68002B03DA2E4B3E
:10220000DB697B6102E02C4B5B687B617B681B0CAC
:1022100003F00F03BB607B689BB23B617B6803F4F8
:102220004013B3F5401F0AD17B6923F070637B61D3
:10223000214B5B68204A23F07063536021E07B6888
:1022400003F48013002B0ED00322BB6802FA03F3C1
:10225000FB60FB68DB437A6913407B617B6943F079
:1022600070637B610DE07B685B0D1B013A6902FACC
:1022700003F3DB437A6913407B617B6943F070634E
:102280007B61FB78002B08D07B685B0D1B013A69F2
:1022900002FA03F37A6913437B617B68002B03DA4C
:1022A000054A7B69D36102E0034A7B69536000BF42
:1022B0001C37BD4680BC70470000014080B400AFB1
:1022C00030BF00BFBD4680BC7047000080B483B003
:1022D00000AF0346FB71044AFB79136000BF0C3763
:1022E000BD4680BC704700BF20000E4280B483B062
:1022F00000AF0346FB71044AFB79136000BF0C3743
:10230000BD4680BC704700BFA0000E4280B500AF44
:102310000A4B1B68094A43F004031360074B1B6810
:10232000064A43F002031360054B1B69044A43F05D
:1023300004031361FFF7C2FF00BF80BD00700040BF
:1023400000ED00E080B483B000AF0346FB71044AA7
:10235000FB79136000BF0C37BD4680BC704700BFDF
:102360000000424280B485B000AF7860396000233D
:10237000FB600A4B5B68FB60FB6823F47C13FB602B
:102380007A683B681343FA681343FB60034AFB68AF
:10239000536000BF1437BD4680BC70470010024038
:1023A00080B483B000AF0346FB71044AFB7913602D
:1023B00000BF0C37BD4680BC704700BF6000424282
:1023C00080B485B000AF78600023FB60094B5B6888
:1023D000FB60FB6823F00303FB60FA687B68134330
:1023E000FB60044AFB68536000BF1437BD4680BCE5
:1023F000704700BF0010024080B400AF044B5B6820
:10240000DBB203F00C03DBB21846BD4680BC70475C
:102410000010024080B485B000AF78600023FB60FC
:10242000094B5B68FB60FB6823F0F003FB60FA6814
:102430007B681343FB60044AFB68536000BF14379A
:10244000BD4680BC704700BF0010024080B485B01C
:1024500000AF78600023FB60094B5B68FB60FB68A2
:1024600023F4E063FB60FA687B681343FB60044A73
:10247000FB68536000BF1437BD4680BC704700BF87
:102480000010024080B485B000AF78600023FB608C
:10249000094B5B68FB60FB6823F46053FB607B685F
:1024A000DB00FA681343FB60034AFB68536000BF1C
:1024B0001437BD4680BC70470010024080B485B020
:1024C00000AF78600023FB60094B5B68FB60FB6832
:1024D00023F44043FB60FA687B681343FB60044AC3
:1024E000FB68536000BF1437BD4680BC704700BF17
:1024F0000010024080B483B000AF0346FB710C4B68
:1025000000221A700A4B00221A70FB79012B02D0AC
:10251000042B04D007E0064B01221A7003E0044BA1
:1025200005221A7000BF00BF0C37BD4680BC704743
:102530002010024080B483B000AF0346FB71044A10
:10254000FB79136000BF0C37BD4680BC704700BFED
:102550008004424280B483B000AF7860054B1A6AB1
:1025600004497B6813430B6200BF0C37BD4680BC37
:10257000704700BF0010024080B483B000AF034634
:10258000FB71044AFB79136000BF0C37BD4680BC69
:10259000704700BF3C04424280B487B000AF78600F
:1025A00000237B6100233B610023FB600023BB60B1
:1025B0004F4B5B6803F00C037B617B69082B11D0E8
:1025C0007B69082B3AD87B69002B03D07B69042BED
:1025D00004D033E07B68474A1A6033E07B68454AA1
:1025E0001A602FE0424B5B6803F470133B61404B71
:1025F0005B6803F48033FB603B699B0C02333B61F7
:10260000FB68002B06D13B693B4A02FB03F27B6867
:102610001A6017E0364B5B6803F40033002B06D0DA
:102620003B69354A02FB03F27B681A600AE03B69AA
:10263000304A02FB03F27B681A6003E07B682D4A94
:102640001A6000BF2A4B5B6803F0F0037B617B6973
:102650001B097B61294A7B6913441B78DBB2BB6091
:102660007B681A68BB68DA407B685A60204B5B68FD
:1026700003F4E0637B617B691B0A7B611F4A7B6912
:1026800013441B78DBB2BB607B685A68BB68DA40D6
:102690007B689A60164B5B6803F460537B617B69CF
:1026A000DB0A7B61154A7B6913441B78DBB2BB6094
:1026B0007B685A68BB68DA407B68DA600C4B5B6801
:1026C00003F440437B617B699B0B7B610C4A7B6914
:1026D00013441B78DBB2BB607B68DA68BB68B2FB73
:1026E000F3F27B681A6100BF1C37BD4680BC70479F
:1026F0000010024000127A0000093D003402002060
:102700004402002080B483B000AF78600B46FB70B9
:10271000FB78002B06D0094B5A6908497B681343A4
:102720004B6106E0054B5A697B68DB430349134064
:102730004B6100BF0C37BD4680BC704700100240A3
:1027400080B483B000AF78600B46FB70FB78002B41
:1027500006D0094B9A6908497B6813438B6106E0F0
:10276000054B9A697B68DB43034913408B6100BFCB
:102770000C37BD4680BC70470010024080B483B067
:1027800000AF78600B46FB70FB78002B06D0094B3E
:10279000DA6908497B681343CB6106E0054BDA69C7
:1027A0007B68DB4303491340CB6100BF0C37BD4658
:1027B00080BC70470010024080B483B000AF7860E6
:1027C0000B46FB70FB78002B06D0094BDA680849F2
:1027D0007B681343CB6006E0054BDA687B68DB431C
:1027E00003491340CB6000BF0C37BD4680BC704727
:1027F0000010024080B483B000AF78600B46FB70DD
:10280000FB78002B06D0094B1A6908497B681343F3
:102810000B6106E0054B1A697B68DB4303491340F3
:102820000B6100BF0C37BD4680BC704700100240F2
:1028300080B487B000AF0346FB710023FB60002328
:102840007B610023FB74FB795B09DBB2FB60FB68F7
:10285000012B03D1124B1B687B6109E0FB68022B43
:1028600003D10F4B1B6A7B6102E00D4B5B6A7B61FE
:10287000FB7903F01F03FB607A69FB6822FA03F31C
:1028800003F00103002B02D00123FB7401E00023BD
:10289000FB74FB7C18461C37BD4680BC704700BFEC
:1028A0000010024080B400AF054B9B889BB2044AE5
:1028B00043F010039BB2938000BFBD4680BC7047BD
:1028C0000028004080B400AF054B9B889BB2044AAF
:1028D00023F010039BB2938000BFBD4680BC7047BD
:1028E0000028004080B483B000AF0023FB80074B7A
:1028F0009B8BFB80054B1B8B9BB21A04FB881343FD
:1029000018460C37BD4680BC704700BF0028004009
:1029100080B582B000AF7860FFF7C4FF7B681A0C07
:10292000064B92B21A83054B7A6892B29A83FFF7EC
:10293000C9FF00BF0837BD4680BD00BF002800406A
:1029400080B582B000AF7860FFF7ACFF7B681B0CEE
:102950009BB2074A03F00F039BB21381044B7A68C2
:1029600092B29A81FFF7AEFF00BF0837BD4680BD27
:102970000028004080B400AF00BF064B9B889BB28C
:1029800003F02003002BF8D000BF00BFBD4680BC81
:10299000704700BF0028004080B400AF0A4B9B88FE
:1029A0009BB2094A23F008039BB2938000BF064BF9
:1029B0009B889BB203F00803002BF8D000BF00BF38
:1029C000BD4680BC704700BF0028004080B485B081
:1029D00000AF786039600023FB817B681B88FB8136
:1029E000FB8903F44153FB813B681A883B685B8891
:1029F00013439AB23B689B8813439AB23B68DB88C7
:102A000013439AB23B681B8913439AB23B685B89B4
:102A100013439AB23B689B8913439AB23B68DB89A4
:102A200013439AB2FB891343FB817B68FA891A80AE
:102A30007B689B8B9BB223F400639AB27B689A837A
:102A40003B681A8A7B681A8200BF1437BD4680BC77
:102A5000704780B483B000AF78600B46FB70FB78A2
:102A6000002B08D07B681B889BB243F040039AB2CE
:102A70007B681A8007E07B681B889BB223F04003C9
:102A80009AB27B681A8000BF0C37BD4680BC704785
:102A900080B483B000AF78600B467B8013467B70B8
:102AA0007B78002B08D07B689B889AB27B88134385
:102AB0009AB27B689A8009E07B689B889AB27B888F
:102AC000DB439BB213409AB27B689A8000BF0C37FD
:102AD000BD4680BC704780B483B000AF78600B46C1
:102AE0007B807B687A889A8100BF0C37BD4680BCAA
:102AF000704780B483B000AF78607B689B899BB2DD
:102B000018460C37BD4680BC704780B485B000AF16
:102B100078600B467B800023FB737B681B899AB22D
:102B20007B8813409BB2002B02D00123FB7301E092
:102B30000023FB73FB7B18461437BD4680BC7047EF
:102B400080B582B000AF78607B68784A93420AD142
:102B500001214FF40060FFF72FFE00214FF40060C9
:102B6000FFF72AFEDEE07B68B3F1804F08D1012138
:102B70000120FFF73FFE00210120FFF73BFED1E0DF
:102B80007B686B4A934208D101210220FFF732FE95
:102B900000210220FFF72EFEC4E07B68654A9342C5
:102BA00008D101210420FFF725FE00210420FFF7B2
:102BB00021FEB7E07B68604A934208D101210820DA
:102BC000FFF718FE00210820FFF714FEAAE07B683B
:102BD0005A4A934208D101211020FFF70BFE002131
:102BE0001020FFF707FE9DE07B68554A934208D10D
:102BF00001212020FFF7FEFD00212020FFF7FAFD34
:102C000090E07B684F4A93420AD101214FF4005073
:102C1000FFF7D2FD00214FF40050FFF7CDFD81E01A
:102C20007B68494A93420AD101214FF40020FFF703
:102C3000C3FD00214FF40020FFF7BEFD72E07B686A
:102C4000424A93420AD101214FF48010FFF7B4FDAC
:102C500000214FF48010FFF7AFFD63E07B683C4A32
:102C600093420AD101214FF40010FFF7A5FD002186
:102C70004FF40010FFF7A0FD54E07B68354A934203
:102C800008D101214020FFF7B5FD00214020FFF7CA
:102C9000B1FD47E07B68304A934208D10121802092
:102CA000FFF7A8FD00218020FFF7A4FD3AE07B6834
:102CB0002A4A93420AD101214FF48070FFF79AFD0E
:102CC00000214FF48070FFF795FD2BE07B68244ACC
:102CD00093420AD101214FF48030FFF76DFD0021AE
:102CE0004FF48030FFF768FD1CE07B681D4A93427B
:102CF0000AD101214FF40030FFF75EFD00214FF4AF
:102D00000030FFF759FD0DE07B68174A934209D167
:102D100001214FF48020FFF74FFD00214FF4802068
:102D2000FFF74AFD00BF0837BD4680BD002C0140BB
:102D30000004004000080040000C0040001000406B
:102D40000014004000340140004C0140005001409C
:102D50000054014000180040001C004000200040CA
:102D600000400140004401400048014080B485B06B
:102D700000AF786039600023FB817B681B88FB8192
:102D80007B682E4A934213D07B682D4A93420FD022
:102D90007B68B3F1804F0BD07B682A4A934207D0FF
:102DA0007B68294A934203D07B68284A934208D122
:102DB000FB8923F07003FB813B685A88FB8913432E
:102DC000FB817B68224A93420CD07B68214A934264
:102DD00008D0FB8923F44073FB813B68DA88FB89C8
:102DE0001343FB817B68FA891A803B689A887B6869
:102DF0009A853B681A887B681A857B680F4A9342DC
:102E00000FD07B680E4A93420BD07B68124A9342E4
:102E100007D07B68114A934203D07B68104A9342E3
:102E200004D13B681B7A9AB27B681A867B680122C0
:102E30009A8200BF1437BD4680BC7047002C014009
:102E4000003401400004004000080040000C004035
:102E500000100040001400400040014000440140C8
:102E60000048014080B485B000AF7860396000232D
:102E70007B810023FB810023BB817B681B8C9BB281
:102E800023F001039AB27B681A847B681B8CFB8158
:102E90007B689B88BB817B681B8B7B817B8923F054
:102EA00070037B817B8923F003037B813B681A8855
:102EB0007B8913437B81FB8923F00203FB813B6801
:102EC0001A89FB891343FB813B685A88FB891343AA
:102ED000FB817B68244A93420FD07B68234A93424C
:102EE0000BD07B68224A934207D07B68214A9342E9
:102EF00003D07B68204A934223D1FB8923F0080347
:102F0000FB813B685A89FB891343FB81FB8923F0D2
:102F10000403FB813B689A88FB891343FB81BB89CF
:102F200023F48073BB81BB8923F40073BB813B68AE
:102F30009A89BB891343BB813B68DA89BB891343F8
:102F4000BB817B68BA899A807B687A891A833B68DF
:102F5000DA887B689A867B68FA891A8400BF1437FE
:102F6000BD4680BC704700BF002C014000340140CA
:102F700000400140004401400048014080B483B05B
:102F800000AF78600B46FB70FB78002B08D07B68A5
:102F90001B889BB243F001039AB27B681A8007E05A
:102FA0007B681B889BB223F001039AB27B681A806E
:102FB00000BF0C37BD4680BC704780B483B000AF03
:102FC00078600B46FB70FB78002B0CD07B68B3F865
:102FD00044309BB26FEA43436FEA53439AB27B6833
:102FE000A3F8442009E07B68B3F844309BB2C3F3F4
:102FF0000E039AB27B68A3F8442000BF0C37BD468D
:1030000080BC704780B483B000AF78600B467B8093
:1030100013467B707B78002B08D07B689B899AB223
:103020007B8813439AB27B689A8109E07B689B890D
:103030009AB27B88DB439BB213409AB27B689A8139
:1030400000BF0C37BD4680BC704780B485B000AF70
:1030500078600B467B800023FB817B681B8BFB81A8
:10306000FB8923F00803FB81FA897B881343FB81EA
:103070007B68FA891A8300BF1437BD4680BC70474D
:1030800080B483B000AF78600B467B807B687A8821
:103090009A8400BF0C37BD4680BC704780B483B0B3
:1030A00000AF78600B467B807B687A889A8600BF89
:1030B0000C37BD4680BC704780B485B000AF7860E7
:1030C0000B467B800023FB730023BB8100237B81A5
:1030D0007B681B8A9AB27B881340BB817B689B8983
:1030E0009AB27B8813407B81BB89002B05D07B89FA
:1030F000002B02D00123FB7301E00023FB73FB7B59
:1031000018461437BD4680BC704780B483B000AF0A
:1031100078600B467B807B88DB439AB27B681A829F
:1031200000BF0C37BD4680BC7047000080B58CB036
:1031300000AF786039600023FB620023BB6200238C
:103140007B6200233B620023FB617B68FB617B6841
:103150001B8A9BB2FB62FA6A4CF6FF731340FB6258
:103160003B68DB881A46FB6A1343FB62FB6A9AB230
:103170007B681A827B689B899BB2FB62FA6A4EF677
:10318000F3131340FB623B689A883B681B89134327
:103190009AB23B685B8913439BB21A46FB6A13439E
:1031A000FB62FB6A9AB27B689A817B689B8A9BB2BE
:1031B000FB62FA6A4FF6FF431340FB623B689B8950
:1031C0001A46FB6A1343FB62FB6A9AB27B689A82D7
:1031D00007F108031846FFF7DFF9FB692E4A93420F
:1031E00002D17B69BB6201E03B69BB627B689B8962
:1031F0009BB21BB2002B0CDABA6A13469B00134435
:103200009A001A443B681B685B00B2FBF3F37B62D5
:103210000BE0BA6A13469B0013449A001A443B68B9
:103220001B689B00B2FBF3F37B627B6A1B4AA2FB29
:1032300003235B091B01FB62FB6A1B09642202FB7F
:1032400003F37A6AD31A3B627B689B899BB21BB2F9
:10325000002B0CDA3B6ADB003233104AA2FB03235B
:103260005B0903F00703FA6A1343FB620BE03B6A56
:103270001B013233094AA2FB03235B0903F00F034E
:10328000FA6A1343FB62FB6A9AB27B681A8100BF39
:103290003037BD4680BD00BF003801401F85EB516F
:1032A00080B483B000AF78600B46FB70FB78002BD6
:1032B00008D07B689B899BB243F400539AB27B6829
:1032C0009A8107E07B689B899BB223F400539AB2F2
:1032D0007B689A8100BF0C37BD4680BC704780B4C4
:1032E00087B000AF78600B467B8013467B7000236D
:1032F0003B610023FB600023BB6000237B617B6894
:103300007B617B88DBB25B09DBB23B617B8803F0CE
:103310001F03FB600122FB6802FA03F3BB603B69F9
:10332000012B03D17B690C337B6109E03B69022BE4
:1033300003D17B6910337B6102E07B6914337B61CD
:103340007B78002B06D07B6919687B69BA680A43D1
:103350001A6006E07B691968BB68DA437B690A403A
:103360001A6000BF1C37BD4680BC704780B483B074
:1033700000AF78607B689B889BB2C3F308039BB265
:1033800018460C37BD4680BC704780B487B000AF8C
:1033900078600B467B800023FB6000237B61002369
:1033A000BB600023FB747B88DBB25B09DBB2BB60D4
:1033B0007B8803F01F037B6101227B6902FA03F320
:1033C0007B61BB68012B07D17B689B899BB21A4646
:1033D0007B6913407B6111E0BB68022B07D17B68DE
:1033E0001B8A9BB21A467B6913407B6106E07B68AF
:1033F0009B8A9BB21A467B6913407B617B881B0AC0
:103400009BB2FB600122FB6802FA03F3FB607B685E
:103410001B889BB21A46FB681340FB607B69002B3C
:1034200005D0FB68002B02D00123FB7401E00023D0
:10343000FB74FB7C18461C37BD4680BC70470346B6
:1034400083F30888704700BF80B584B000AFF86090
:10345000B9607A607B8001210120FFF753F9F86899
:10346000FEF726FB164A7B881380164ABB6813605A
:10347000144A7B685360134B10229A607B88114A70
:10348000D360104B00221A610E4B80225A610D4B03
:1034900000229A610B4B0022DA610A4B00221A6269
:1034A000084B4FF480525A62064B00229A6205493B
:1034B000F868FEF7B9FB00BF1037BD4680BD00BFFE
:1034C000481000204C10002080B584B000AFF86098
:1034D000B9607A607B8001210120FFF713F9F86859
:1034E000FEF7E6FA174A7B881380174ABB68136019
:1034F000154A7B685360144B10229A607B88124AED
:10350000D360114B00221A610F4B00225A610E4BFF
:103510004FF480729A610C4B4FF48062DA610A4B6F
:1035200000221A62084B4FF480525A62064B002266
:103530009A620549F868FEF777FB00BF1037BD4671
:1035400080BD00BF481000204C10002080B58EB018
:1035500000AF78600B467B80FF2387F8373001216E
:103560000120FFF7CFF82448FEF7A2FA2348FEF720
:103570009FFA07F108031846FEF794FB204BBB6047
:103580007B68FB6000233B617B887B610023BB6120
:103590008023FB6100233B6200237B620023BB622C
:1035A0004FF44053FB6200233B6307F108031946C5
:1035B0001148FEF739FB01210F48FEF79DFB07F18B
:1035C0003703FB6010233B614FF44053FB62002341
:1035D000FB6107F1080319460848FEF725FB0121A6
:1035E0000648FEF789FB012203210648FFF750FA3F
:1035F00000BF3837BD4680BD1C000240300002408D
:103600000C3001400030014080B582B000AF7860DE
:1036100000217868FEF770FB064B1B8819460648A8
:10362000FEF786FB01217868FEF766FB00BF0837CE
:10363000BD4680BD481000203000024080B582B0F9
:1036400000AF01210420FFF77BF801210820FFF7DC
:1036500077F801211020FFF773F801212020FFF7F0
:103660006FF801210120FFF76BF801215548FEF7A3
:10367000B5FD01214FF40040FEF7B0FD0323BB71FF
:103680001023FB714FF40043BB803B1D19464E488D
:10369000FEF7B2FC4FF400414B48FEF790FD4FF4AB
:1036A0000053BB803B1D19464848FEF7A5FC4FF46C
:1036B00000514648FEF783FD4FF40063BB803B1D7D
:1036C00019464248FEF798FC4FF400613F48FEF768
:1036D00068FD1423FB714FF48073BB800420FEF758
:1036E000CFF903461A464AF6CD339A4205D14FF434
:1036F00080713648FEF763FD04E04FF48071334873
:10370000FEF74FFD3B1D19463048FEF775FC0420BF
:10371000FEF7B6F903461A464AF6CD339A4205D16A
:103720004FF480712948FEF74AFD04E04FF48071A0
:103730002648FEF736FD4FF40073BB803B1D19464B
:103740002248FEF759FC4FF400712048FEF729FD8E
:103750004FF48053BB803B1D19461C48FEF74CFCC0
:103760004FF480511948FEF72AFD0123BB803B1D11
:1037700019461748FEF740FC01211548FEF71FFDCA
:103780000423FB710223BB803B1D19461048FEF742
:1037900033FC2823FB714FF48043BB803B1D19464B
:1037A0000A48FEF729FC4FF40043BB803B1D194635
:1037B0000648FEF721FCFDF743FA00BF0837BD4677
:1037C00080BD00BF0002300000100140000C01402D
:1037D0000014014080B500AFFDF75AFA00BF80BD6C
:1037E00080B500AF01214FF0C050FEF7C7FF0120A8
:1037F000FEF76CFD00BF80BD80B500AF03F01EF882
:1038000003F07EF900BF80BD82B0B0B58AB002AFD0
:1038100007F1300484E80C000346FB800B46BB80B4
:103820006B461D460023FB827B6BBB610F237B75C0
:10383000FB8F1A467B7D92FBF3F33B75FB8F1A4699
:103840007B7D92FBF3F103FB01F3D31AFB74BB8F77
:103850001A467B7D03FB02F35B005C1C631EFB606E
:10386000234618464FF000014FF000024FF00003CE
:10387000CB0043EA5073C200234618464FF00001C4
:103880004FF000024FF00003CB0043EA5073C20038
:1038900023460733DB08DB00ADEB030D02AB00333F
:1038A000BB600023FB772BE0B868BB8F7A7D92B2B8
:1038B00002FB03F39BB25B009BB21A46B96903F0AB
:1038C000C7F9BB8F1A467B7D03FB02F35B001A46E8
:1038D000BB691344BB61BA88FB8A134499B2BA8F9F
:1038E0007B7D9CB2BB68F8880093234602F024FEDF
:1038F0007B7D9AB2FB8A1344FB82FB7F0133FB770B
:10390000FA7F3B7D9A42CFD3B868BB8FFA7C92B2E4
:1039100002FB03F39BB25B009BB21A46B96903F04A
:1039200097F9BB8F1A46FB7C03FB02F35B001A4638
:10393000BB691344BB61FB8AEF2B0CD8BA88FB8AA6
:10394000134499B2BA8FFB7C9CB2BB68F888009391
:10395000234602F0F1FDAD4600BF2037BD46BDE86D
:10396000B04002B0704782B080B586B000AF07F1BA
:10397000200C8CE80C000346FB800B46BB807A6A67
:10398000FB88B96A01FB03F313447B61BB887A6946
:1039900013443B6107F10F0301223969184603F014
:1039A00057F9FB7B18461837BD46BDE8804002B08A
:1039B000704782B080B584B000AF7860FB610B4681
:1039C0007B8013463B803A6A7B88796A01FB03F36C
:1039D0001344FB603B881A46F968786803F038F9AD
:1039E00000BF1037BD46BDE8804002B07047000000
:1039F00080B485B000AF0346FB71FB79642B16D908
:103A00000023FB730FE0FA7B154913465B00134458
:103A10009B000B441B78FA799A4201D1FB7B1AE098
:103A2000FB7B0133FB73FB7B032BECD912E0002300
:103A3000FB730CE0FB7B0B4A1B0113441B78FA79E8
:103A40009A4201D1FB7B06E0FB7B0133FB73FB7BDE
:103A50000B2BEFD9FF2318461437BD4680BC7047A7
:103A6000400100200000002080B584B000AF034674
:103A70003960FB71FB791846FFF7BAFF0346FB7309
:103A8000FB7BFF2B15D0FB79642B0AD9FA7B0B4902
:103A900013465B0013449B000B4404333A681A60DE
:103AA00008E0FB7B064A1B01134404333A681A60A2
:103AB00000E000BF1037BD4680BD00BF40010020C0
:103AC0000000002080B586B000AF3B600346FB716C
:103AD0000B46BB7113467B71FB791846FFF788FFD5
:103AE0000346FB73FB7BFF2B00F0908000233B61C0
:103AF0000023FB7512E0FB7D3A6813441B781946DE
:103B00007B795A1EFB7DD31ADB0001FA03F31A46B8
:103B10003B6913443B61FB7D0133FB75FA7D7B7987
:103B20009A42E8D3FB79642B2ED9BB79782B1ED02F
:103B3000782B6CDC762B02D0772B0BD067E0FA7BEE
:103B4000344913465B0013449B000B4408333A6925
:103B50001A605CE0FA7B3B69D8B22E4913465B00E1
:103B600013449B000B44013302461A704FE0FA7B6A
:103B70003B69D8B2274913465B0013449B000B44B2
:103B8000023302461A7042E0BB79713B042B3ED8E7
:103B900001A252F823F000BFAD3B0008C13B000872
:103BA000D53B0008E93B0008FD3B0008FB7B3A6978
:103BB00091B2194A1B0113440C330A461A8026E0BD
:103BC000FB7B3A6991B2144A1B0113440E330A4637
:103BD0001A801CE0FB7B3A69D1B20F4A1B011344E7
:103BE00001330A461A7012E0FB7B3A69D1B20A4AE5
:103BF0001B01134402330A461A7008E0FB7B064A95
:103C00001B01134408333A691A6000E000BF1837FB
:103C1000BD4680BD4001002000000020F0B585B009
:103C200002AF0346FB71FB79002B06D0444B002208
:103C30001A70444B01221A707EE0414B1B78002B16
:103C400018D1414B6C4603F1080292E8030084E866
:103C500003000CCB00210020FFF7D6FD002000F070
:103C6000E5FE642002F0DAFC354B01221A70374B76
:103C700000225A60012001F083F803461A4641F2FF
:103C80005E039A4219D9304B93F8B1309CB22E4B57
:103C900093F8B2309DB22C4B6E4603F1B80292E815
:103CA000030086E80300B0330CCB29462046FFF71B
:103CB000ABFD274B01221A703EE0244B5B68B3F545
:103CC000FA7F39DD224B1B78012B34D01D4B1B783A
:103CD0001D4A1B01134401331B789CB2194B1B78FE
:103CE000194A1B01134402331B789DB2154B1B78F4
:103CF000154A1B0113446E4603F1080292E80300C3
:103D000086E803000CCB29462046FFF77DFD002006
:103D100000F08CFE0B4B1B780133DAB2094B1A70A2
:103D2000084B1B78092B02D9064B01221A70074B4E
:103D300000225A6000E000BF0C37BD46F0BD00BF56
:103D40000803002049020020000000201410002079
:103D50000903002090B587B004AF0346FB71FB79DF
:103D6000002B03D01F4B00221A7038E01D4B1B782C
:103D7000002B1CD11C4B00225A60642002F04EFC28
:103D80000DE01A4B6C4603F1A80292E8030084E8A8
:103D90000300A0330CCB00210020FFF735FD124BB0
:103DA0005B68B3F5FA7FECDD0E4B01221A7001233C
:103DB000029318230193002300934FF6FF730C4ADC
:103DC000C8213C2002F082FB074B00225A6001E030
:103DD00000F002FA044B5B68B3F5FA7FF8DD0C37AC
:103DE000BD4690BD0A0300201410002000000020F2
:103DF0004CA1000890B587B004AF0346FB71664B39
:103E00001B78012B40F0BA80FB79002B03D0634B69
:103E100000221A70BDE0614B1B78002B29D1604B4A
:103E200000225A601EE05F4B6C4603F1A80292E844
:103E3000030084E80300A0330CCB00210020FFF72F
:103E4000E3FC002302931823019341F65D330093B2
:103E50004FF6FF73544AB0212A2002F037FB64204A
:103E600002F0DCFB4E4B5B68322BDCDD4B4B01225E
:103E70001A704B4B00225A600DE000230293182366
:103E8000019341F65D3300934FF6E073474AC82132
:103E9000542002F01BFB424B5B68642BEDDD404B72
:103EA00000225A600DE0002302931823019341F68B
:103EB0005D3300934FF6E0733D4AC821542002F071
:103EC00005FB374B5B68642BEDDD354B00225A60F8
:103ED0000DE0002302931823019341F65D33009314
:103EE0004FF6E073334AC821542002F0EFFA2C4B0E
:103EF0005B68642BEDDD2A4B00225A600DE0002345
:103F000002931823019341F65D3300934FF6E0735B
:103F1000294AC821542002F0D9FA214B5B68642B4E
:103F2000EDDD1F4B00225A600DE0002302931823A1
:103F3000019341F65D3300934FF6E0731F4AC821A9
:103F4000542002F0C3FA164B5B68642BEDDD144B72
:103F500000225A600DE0002302931823019341F6DA
:103F60005D3300934FF6E073154AC821542002F0E8
:103F7000ADFA0B4B5B68642BEDDD0AE0642002F0C8
:103F80004DFB1F230093F023F0220021002001F0BD
:103F900055FD0C37BD4690BDF40200200B030020F8
:103FA000141000200000002058A1000868A100089B
:103FB00070A1000878A1000880A1000888A100086D
:103FC00090A1000890B587B004AF0346FB71FB7960
:103FD000002B03D0244B00221A7042E0224B1B78A6
:103FE000002B10D1214B6C4603F1A80292E803008C
:103FF00084E80300A0330CCB00210020FFF704FC71
:10400000194B01221A701A4B00229A6000BF184BFC
:104010009B68B3F5967FFADD00230293202301937A
:1040200041F65D3300934FF6E073124AB42112203B
:1040300002F04CFA0E4B00229A6000BF0C4B9B68BA
:10404000B3F5967FFADD002302932023019341F616
:104050005D3300934FF6E073074AB421122002F05B
:1040600035FA0C37BD4690BD0C030020000000203F
:104070001410002098A10008A8A10008000000006A
:104080002DE9B0438AB000AFC7E902014FF000024A
:104090004FF00003C7E90823D7E90223C7E9062345
:1040A00001237B61D7E90623D7E90801FCF756F81D
:1040B00002460B46C7E908237B6901337B61BB6974
:1040C0003B60FB6983F000437B60D7E90223D7E9BB
:1040D0000001FCF7F9F902460B4610461946D7E9EC
:1040E0000223FCF7F1F902460B46904699467B699C
:1040F0005B00013B1846FCF77DF902460B46404643
:104100004946FCF70BFB02460B46904699467B69F5
:10411000013B5B001846FCF76DF902460B46404632
:104120004946FCF7FBFA02460B46C7E90623BC6981
:10413000FB6923F000450AA3D3E900232046294662
:10414000FCF748FC0346002BACD1D7E90823104606
:1041500019462837BD46BDE8B08300BFAFF30080E5
:104160008DEDB5A0F7C6B03E80B582B000AFC7E90F
:10417000000115A3D3E90023D7E90001FBF7EEFF07
:1041800002460B46C7E900230FA3D3E90023D7E972
:104190000001FCF729FC0346002B0AD00CA3D3E94D
:1041A0000023D7E90001FBF7D7FF02460B46C7E91A
:1041B0000023D7E90001FFF763FF02460B461046D4
:1041C00019460837BD4680BDF1D4C853FB210940CC
:1041D000F1D4C853FB21194080B584B000AF00234F
:1041E000FB600023BB60A64B93F90030012B40F02D
:1041F00027810023FB601BE1B868FCF7FBF89CA358
:10420000D3E90023FCF760F902460B461046194635
:104210004FF000029B4BFCF781FA02460B4610461A
:104220001946FFF72DFF4FF00002974BFCF74CF9B2
:1042300002460B46104619464FF00002924BFBF720
:104240008DFF02460B46104619464FF000028F4B79
:10425000FCF73AF902460B46104619464FF00002A9
:104260008B4BFCF75BFA02460B4610461946FCF7EF
:10427000C5FB034619B2874AFB6822F81310BB68D6
:104280005A3B854A82FB03121A441112DA178A1A22
:104290004FF4B47101FB02F29A1A1046FCF7AAF827
:1042A00073A3D3E90023FCF70FF902460B4610462F
:1042B00019464FF00002734BFCF730FA02460B46EA
:1042C00010461946FFF7DCFE02460B46FBF746FF99
:1042D00002460B461046194667A3D3E90023FCF7B4
:1042E000F3F802460B46104619464FF000026B4B9E
:1042F000FCF7EAF802460B4610461946FCF77EFB2F
:10430000034659B2664AFB6813440A461A70B868F5
:10431000FCF770F856A3D3E90023FCF7D5F8024662
:104320000B46104619464FF00002564BFCF7F6F9C3
:1043300002460B4610461946FFF716FF4FF00002E3
:10434000514BFCF7C1F802460B46104619464FF098
:1043500000024D4BFBF702FF02460B461046194682
:104360004FF00002494BFCF7AFF802460B461046EF
:1043700019464FF00002464BFCF7D0F902460B46B7
:1043800010461946FCF73AFB034619B2454AFB684A
:1043900022F81310BB685A3B3F4A82FB03121A44AF
:1043A0001112DA178A1A4FF4B47101FB02F29A1A49
:1043B0001046FCF71FF82EA3D3E90023FCF784F87E
:1043C00002460B46104619464FF000022D4BFCF7F3
:1043D000A5F902460B4610461946FFF7C5FE0246F0
:1043E0000B46FBF7BBFE02460B461046194622A3BE
:1043F000D3E90023FCF768F802460B46104619463D
:104400004FF00002254BFCF75FF802460B461046C2
:104410001946FCF7F3FA034659B2234AFB681344E2
:104420000A461A70BB680133BB60FB680133FB604E
:10443000FB68B3F5B47FFFF6DFAE114B00221A70B4
:104440001A4B1B881A464FF4A07393FBF2F39AB2EF
:10445000174B1A80174BB3F900309BB21A469200E3
:1044600013445B009AB2144B1A800023FB6068E08F
:10447000F1D4C853FB210940333333333333D33FB3
:104480004A0200200080664000408F400000394012
:1044900000409F4010030020B7600BB6000014409E
:1044A000E005002048070020180A00204C020020E8
:1044B000800B0020820B0020840B0020A64B1B8861
:1044C0001A46FB6803FB02F3A44A12881344A44A69
:1044D00082FB03121A441112DA178A1A4FF4B471CC
:1044E00001FB02F29B1A7B609E4A7B6832F9133013
:1044F00059B29D4AFB6802F823109C4A7B6813441A
:1045000093F90010984AFB689B0013440A465A70BE
:10451000974A7B6832F9133059B2934AFB689B0083
:1045200013440A469A70934A7B68134493F9001027
:104530008D4AFB689B0013440A46DA70FB6801331E
:10454000FB60FB68072BB9DD844B1B88DA088A49BE
:10455000A1FB021292084FF4B47101FB02F29B1A04
:104560009BB2002B05D1854B1B780133DAB2834B0C
:104570001A70824B1B78012B05D1814B00221A80C7
:104580007E4B00221A707E4BB3F900309BB2013390
:104590009BB21AB27A4B1A800023FB609EE0794BE3
:1045A0001B689AB2FB689BB27749096889B201FB24
:1045B00003F39BB2134498B2744AFB6812F9233098
:1045C0009AB2734B1B689BB2134499B26F4AFB6853
:1045D0009B00134493F901300533DA0F13445B1049
:1045E000DAB241F65D3301F061FC664B1B689AB2AA
:1045F000FB689BB26449096889B201FB03F39BB273
:10460000134498B2584AFB6812F923309AB2604BAF
:104610001B689BB2134499B2534AFB689B00134436
:1046200093F901300533DA0F13445B10DAB24FF619
:10463000FF7301F03BFC534B1B689AB2FB689BB2C3
:104640005149096889B201FB03F39BB2134498B244
:104650004E4AFB689B00134493F902309AB24C4BCC
:104660001B689BB2134499B2484AFB689B001344F1
:1046700093F903300533DA0F13445B10DAB241F6D5
:104680005D3301F013FC3F4B1B689AB2FB689BB291
:104690003D49096889B201FB03F39BB2134498B208
:1046A000314AFB689B00134493F902309AB2384BAD
:1046B0001B689BB2134499B22B4AFB689B001344BE
:1046C00093F903300533DA0F13445B10DAB24DF679
:1046D000FB6301F0EBFBFB680133FB60FB68072B1E
:1046E0007FF75DAF0023FB602EE01F4AFB6812F9E5
:1046F0002310264AFB6802F823101B4AFB689B0024
:10470000134493F90110214AFB689B0013440A46A5
:104710005A70154AFB689B00134493F902101B4A18
:10472000FB689B0013440A469A700F4AFB689B0083
:10473000134493F90310154AFB689B0013440A467F
:10474000DA70FB680133FB60FB68072BCDDD00BF2F
:104750001037BD4680BD00BF800B0020840B0020B9
:10476000B7600BB610030020880B0020E005002086
:1047700048070020180A0020176CC116A80B00205B
:10478000820B00205002002054020020AC0B0020BD
:104790005802002080B582B000AF0023FB710020DA
:1047A000FCF7A0FC03461A4640F61D139A4208D9AE
:1047B0000120FCF797FC8E4B1B78012B01D001F0F8
:1047C00007F88C4B1B78012B1DD10020FCF7CAFC8D
:1047D0000346002B05D10120FCF7C4FC854B0022C9
:1047E0001A700020FCF7BEFC0346642B0BD9012095
:1047F000FCF7B8FC804804F003FD804B1B689B6805
:10480000184604F0B1FA0020FCF7ACFC0346B3F5FF
:104810007A7F09D9774B1B78002B05D10120FCF753
:10482000A1FC744B01221A70754B1B78012B1DD112
:104830000020FCF7D9FC0346002B05D10120FCF732
:10484000D3FC6F4B00221A700020FCF7CDFC03460E
:10485000642B0BD90120FCF7C7FC6A4804F0D0FC9C
:10486000664B1B689B68184604F07EFA0020FCF734
:10487000BBFC0346B3F57A7F09D9614B1B78002B4B
:1048800005D10120FCF7B0FC5D4B01221A705E4B94
:104890001B78012B1DD10020FCF728FD0346002BBF
:1048A00005D10120FCF722FD574B00221A70002091
:1048B000FCF71CFD0346642B0BD90120FCF716FD09
:1048C000524804F09DFC4D4B1B689B68184604F051
:1048D0004BFA0020FCF70AFD0346B3F57A7F09D9AD
:1048E000494B1B78002B05D10120FCF7FFFC464B00
:1048F00001221A70464B1B78012B1DD10020FCF7BA
:10490000B3FC0346002B05D10120FCF7ADFC404B66
:1049100000221A700020FCF7A7FC0346642B0BD979
:104920000120FCF7A1FC3B4804F06AFC334B1B68F8
:104930009B68184604F018FA0020FCF795FC034623
:10494000B3F57A7F09D9324B1B78002B05D10120B2
:10495000FCF78AFC2E4B01221A700020FCF7C0FAEB
:104960000346FB71FB79002B3CD0FB79013B082B04
:1049700039D801A252F823F09D490008A549000842
:10498000AD490008B5490008BD490008C5490008FF
:10499000CD490008D5490008DD490008164804F053
:1049A0002FFC20E0174804F02BFC1CE0194804F011
:1049B00027FC18E0154804F023FC14E0164804F026
:1049C0001FFC10E0154804F01BFC0CE0144804F038
:1049D00017FC08E0134804F013FC04E0124804F04C
:1049E0000FFC00E000BF00BF0837BD4680BD00BF20
:1049F00048020020CC0B0020B8A10008740200205F
:104A0000CD0B0020C8A10008CE0B0020D8A10008C3
:104A1000CF0B0020E8A10008F8A1000808A20008B8
:104A200018A2000828A200083CA2000890B589B08E
:104A300004AF0346FB710023BB730020FCF752FB5D
:104A400003461A4640F6B8339A4240F28B80FB790F
:104A5000012B40F08780454804F0D2FB444B1B6893
:104A60009B68184604F080F90120FCF73BFB00BF6F
:104A7000022000F085F90346002BF9D0012000F058
:104A80007FF90346BB81BB8919463A4804F032FBE3
:104A9000374B1B689B68184604F066F9BB89B3F571
:104AA000616F53D8344B6C4603F1980292E80300CF
:104AB00084E8030090330CCB59213620FEF7A4FE86
:104AC0000023FB733BE0BB8919462C4804F012FB22
:104AD000274B1B689B68184604F046F9284B0022B8
:104AE0009A600DE0002302931423019341F65D3395
:104AF00000934FF6FF73234AB4211E2001F0E6FC19
:104B00001F4B9B68B3F5967FECDD1D4B00229A602E
:104B10000DE0002302931423019341F65D330093CB
:104B20004FF6FF73184AB4211E2001F0CFFC144B3E
:104B30009B68B3F5967FECDDFB7B0133FB73FB7B5E
:104B4000042BC0D90120FFF769F80BE00F4B0122BD
:104B50001A700F4B01221A700120FFF7FBF8012099
:104B6000FFF75CF800BF1437BD4690BD4CA20008AB
:104B70007402002064A20008000000207CA200084B
:104B8000141000209CA20008B0A20008040300201A
:104B90004802002080B500AF02210F48FDF7E8FA77
:104BA0000346002B08D04FF480510C48FDF7F9FA6A
:104BB0000B4B01221A700DE0032000F0E1F80346D0
:104BC000002B07D14FF480510448FDF7F8FA044B4D
:104BD00000221A7000BF80BD00140140000C01408B
:104BE0000603002000000000B0B582B000AF03460D
:104BF000FB71FB79012B02D1594B1B78A8E0594B73
:104C00001B78002B40F0A1800120FBF7C3FF034677
:104C10001846FBF7EFFB04460D4601211120FBF778
:104C2000E3FF03461846FBF7E5FB02460B464FF051
:104C300033304D49FBF772FD02460B4620462946AC
:104C4000FBF742FC02460B46104619464FF00002A5
:104C5000464BFBF739FC02460B46104619463EA36D
:104C6000D3E90023FBF730FC02460B4610461946F9
:104C7000FBF7ECFE03469BB240F6AC52934214D9CC
:104C8000374B1B78002B03D0354B1B78022B0CD1F4
:104C9000334B01221A70364804F0B2FA354B1B68C8
:104CA0009B68184604F060F852E00120FBF772FFA1
:104CB00003461846FBF79EFB04460D4601211120D2
:104CC000FBF792FF03461846FBF794FB02460B46A0
:104CD0004FF033302449FBF721FD02460B462046B6
:104CE0002946FBF7F1FB02460B46104619464FF0EA
:104CF00000021E4BFBF7E8FB02460B461046194626
:104D000015A3D3E90023FBF7DFFB02460B46104651
:104D10001946FBF79BFE03469BB2B3F5FA6F17D813
:104D20000F4B1B78012B03D00D4B1B78022B0FD19F
:104D30000B4B00221A70104804F062FA0D4B1B68EE
:104D40009B68184604F010F802E0054B02221A7026
:104D500018460837BD46B0BDACAAAAAAAAAAFA3F0F
:104D6000D00B0020060300203333F33F00408F4078
:104D7000C4A2000874020020D0A2000800000000B5
:104D8000B0B584B000AF0346FB71FB79032B07D1AC
:104D9000AD4B1B78012B01D10123D4E10023D2E1DB
:104DA000FB79012B02D1A94B1B88CCE1FB79002BAD
:104DB00040F0B880A44B1B78002B0AD1A44B1B7881
:104DC000002B06D1A34B00221A62A14B01221A70BC
:104DD000A8E09D4B1B78002B52D19D4B1B78012BDB
:104DE0004ED19C4B1B6A42F20F72934248DC012069
:104DF000FBF7D0FE03461846FBF7FCFA04460D46C7
:104E000001211120FBF7F0FE03461846FBF7F2FAEA
:104E100002460B464FF033308F49FBF77FFC0246CA
:104E20000B4620462946FBF74FFB02460B46104631
:104E300019464FF00002894BFBF746FB02460B4632
:104E4000104619467CA3D3E90023FBF73DFB02463D
:104E50000B4610461946FBF7F9FD03469BB2B3F526
:104E6000FA6F03D37E4B1B78012B5AD1764B01226C
:104E70001A70774B00221A707A4B00221A7050E099
:104E8000714B1B78002B18D1714B1B78012B14D15F
:104E9000704B1B6A42F20F7293420EDD4FF4805149
:104EA0007148FDF77EF9684B01221A70684B0022A9
:104EB0001A706C4B00221A7034E0634B1B78012B84
:104EC0000AD1634B1B78002B06D1624B00221A6279
:104ED0005F4B01221A7025E05B4B1B78012B21D11F
:104EE0005B4B1B78012B1DD15A4B1B6A40F2DB52E6
:104EF000934217DD012000F09FF90346FB81534ADE
:104F0000FB891380574B01221A704FF48051564889
:104F1000FDF755F94C4B00221A704D4B00221A70C8
:104F200000E000BFFB79022B40F0A080474B1B88BC
:104F3000002B01D0012306E1434B1B78002B11D13C
:104F4000434B01221A704FF480514748FDF729F96D
:104F50003D4B01221A703E4B00221A70414B002239
:104F60001A7065E0384B1B78012B0AD1384B1B783F
:104F7000002B06D1374B00221A62354B01221A70E2
:104F800056E0314B1B78012B52D1314B1B78012B52
:104F90004ED1304B1B6A40F2DB52934248DD642114
:104FA0000220FBF721FE03461846FBF723FA0446CE
:104FB0000D4601211120FBF717FE03461846FBF7AB
:104FC00019FA02460B464FF033302349FBF7A6FB94
:104FD00002460B4620462946FBF776FA02460B4668
:104FE000104619464FF000021C4BFBF76DFA0246C3
:104FF0000B461046194612A3D3E90023FBF764FAC7
:1050000002460B4610461946FBF720FD03469AB2AE
:105010000E4B1A80134B01221A704FF48051124824
:10502000FDF7CDF8084B00221A70094B00221A70C8
:105030000C4B1B789BB286E0ACAAAAAAAAAAFA3F9C
:10504000545555555555F53FD10B0020D20B002036
:10505000D40B0020141000203333F33F00408F4066
:1050600006030020D50B0020000C01403A4B1B88A2
:1050700040F6485293425DD8384B1B78002B59D1EB
:10508000374B1B78002B55D1364B00221A6200BFDC
:10509000344B1B6A052BFBDD64210220FBF7A4FDCA
:1050A00003461846FBF7A6F904460D4601211120D8
:1050B000FBF79AFD03461846FBF79CF902460B46A0
:1050C0004FF033302849FBF729FB02460B462046B8
:1050D0002946FBF7F9F902460B46104619464FF0F0
:1050E0000002224BFBF7F0F902460B461046194628
:1050F00017A3D3E90023FBF7E7F902460B46104656
:105100001946FBF7A3FC03469BB240F64852934274
:1051100010D80120FFF768FD0346002B0AD1144880
:1051200004F06EF80120FEF715FE0120FEF776FD73
:1051300000F04EFB0F4B1B78012B04D10D4B0022CE
:105140001A7000F045FB18461037BD46B0BD00BFD1
:10515000545555555555F53FD20B0020D10B002025
:10516000D40B0020141000203333F33F00408F4055
:10517000E0A200080503002080B584B002AF03461A
:10518000FB80FB8840F6327293420BD9F888642387
:105190000093502341F2680240F6327100F032FC75
:1051A000034644E0FB8840F6746293420BD9F888CA
:1051B000502300933C2340F6327240F6746100F0B5
:1051C00021FC034633E0FB8840F6F25293420BD9B0
:1051D000F8883C230093282340F6746240F6F2518D
:1051E00000F010FC034622E0FB8840F6B6529342E2
:1051F0000BD9F88828230093142340F6F25240F686
:10520000B65100F0FFFB034611E0FB8840F6665202
:1052100093420BD9F88814230093052340F6B65225
:1052200040F6665100F0EEFB034600E0012318460D
:105230000837BD4680BD0000B0B584B000AF03465E
:10524000FB71FB79002B39D164210220FBF7CCFCE8
:1052500003461846FBF7CEF804460D4601211120FF
:10526000FBF7C2FC03461846FBF7C4F802460B46A0
:105270004FF033309849FBF751FA02460B4620466F
:105280002946FBF721F902460B46104619464FF016
:105290000002924BFBF718F902460B4610461946DE
:1052A00089A3D3E90023FBF70FF902460B4610460A
:1052B0001946FBF7CBFB03469BB2FEE0FB79012BC3
:1052C00040F0B48064210220FBF78EFC03461846B0
:1052D000FBF790F804460D4601211120FBF784FCF2
:1052E00003461846FBF786F802460B464FF033306C
:1052F0007949FBF713FA02460B4620462946FBF78D
:10530000E3F802460B46104619464FF00002734B75
:10531000FBF7DAF802460B46104619466AA3D3E9B2
:105320000023FBF7D1F802460B4610461946FBF75F
:105330008DFB0346FB8164210220FBF755FC0346ED
:105340001846FBF757F804460D4601211120FBF7DC
:105350004BFC03461846FBF74DF802460B464FF050
:1053600033305D49FBF7DAF902460B462046294601
:10537000FBF7AAF802460B46104619464FF000020A
:10538000564BFBF7A1F802460B46104619464EA3B2
:10539000D3E90023FBF798F802460B46104619465E
:1053A000FBF754FB0346BB813AE0BB89FB816421D8
:1053B0000220FBF719FC03461846FBF71BF80446CE
:1053C0000D4601211120FBF70FFC03461846FBF7A1
:1053D00011F802460B464FF033303F49FBF79EF978
:1053E00002460B4620462946FBF76EF802460B465E
:1053F000104619464FF00002384BFBF765F802469D
:105400000B461046194630A3D3E90023FBF75CF89E
:1054100002460B4610461946FBF718FB0346BB81B4
:10542000BA89FB899A42C0D3BB8946E0FB79022B3B
:1054300005D101211120FBF7D7FB03463DE0FB79A5
:10544000032B39D102210120FBF7CEFB034618467E
:10545000FAF7D0FF04460D4601211120FBF7C4FBEB
:1054600003461846FAF7C6FF02460B464FF03330A4
:105470001949FBF753F902460B4620462946FBF72C
:1054800023F802460B46104619464FF00002134B14
:10549000FBF71AF802460B46104619460CA3D3E94F
:1054A0000023FBF711F802460B4610461946FBF79E
:1054B000CDFA03469BB200E0002318461037BD46E4
:1054C000B0BD00BFAFF30080545555555555F53F5D
:1054D000ACAAAAAAAAAAFA3F3333F33F00408F40EE
:1054E00080B584B000AF0346FB71FB79012B02D17C
:1054F0003C4B1B8872E03B4B1B88002B06D10120E4
:10550000FFF73EFC03461A46364B1A800120FFF790
:1055100037FC03461A46344B1A80334B1B88002B4A
:105520005CD0304B1B88002B58D02F4B1B881A4661
:105530002C4B1B88D31AFB60FB68012B0BDCFB6830
:10554000B3F1FF3F07DB294B42F210721A60284B80
:1055500001221A7016E0FB68002B06DD254AFB6865
:1055600092FBF3F31A46214B1A60FB68002B06DA14
:10557000214AFB6892FBF3F31A461C4B1A601C4B42
:1055800001221A701A4B1B78002B03D11B4B0022EF
:105590005A6223E0194B5B6A1A46144B1B689A4205
:1055A0001CD9164B00225A62114B00221A70FB685C
:1055B000002B05DD0B4B1B8801339AB2094B1A8077
:1055C000FB68002B05DA074B1B88013B9AB2054BA1
:1055D0001A80FB68002B01D10023FFE71846103723
:1055E000BD4680BDD60B0020D80B0020DC0B002070
:1055F000E00B0020E0930400206CFBFF141000205F
:10560000B0B582B000AF0420FCF73AFA03461A4660
:105610004AF6CD339A4225D1614B1B689B681846E8
:1056200003F0A2FB0120FBF75DFD0120FEF792FBDA
:105630000120FEF7F3FA00210420FCF705FA594B8C
:1056400001221A70584B00221A704FF4005157482B
:10565000FCF7A7FD4FF4C87002F064FD544803F056
:10566000CFFD94E00120FBF795FA03461846FAF7C0
:10567000C1FE04460D4601211120FBF7B5FA034691
:105680001846FAF7B7FE02460B464FF03330494949
:10569000FBF744F802460B4620462946FAF714FF6A
:1056A00002460B46104619464FF00002424BFAF7ED
:1056B0000BFF02460B461046194637A3D3E90023D9
:1056C000FAF702FF02460B4610461946FBF7BEF9F1
:1056D00003469BB240F6AC5293421DD9314B022295
:1056E0001A70364803F08CFD2D4B1B689B681846DA
:1056F00003F03AFB4BE00020FBF7F4FC0346002BE1
:105700000AD12F4803F07CFD254B1B689B68184687
:1057100003F02AFB00F038F90020FBF7E3FC034616
:105720001A4640F2DB539A42E5D900BF0220FFF748
:1057300027FB0346002BF9D00120FFF721FB03468E
:10574000FB80FB88B3F5616F0CD8FB8819461D48B8
:1057500003F0D0FC124B1B689B68184603F004FB57
:1057600000F012F9184803F04BFD0D4B1B689B68C5
:10577000184603F0F9FA0120FBF7B4FC094B0122AB
:105780001A700120FEF7E6FA0120FEF747FA083703
:10579000BD46B0BDAFF30080ACAAAAAAAAAAFA3F40
:1057A000740200200403002048020020000C014085
:1057B000F0A200083333F33F00408F4000A30008FD
:1057C00024A3000848A300085CA300080000000010
:1057D000B0B582B000AF5A4803F012FD594B1B68B8
:1057E0009B68184603F0C0FA0023FB71564803F08B
:1057F00007FD544B1B689B68184603F0B5FA534BE2
:1058000000229A6001E002F0B9FB504B9B68B3F5AF
:10581000FA7FF8DD4E4B1B78002B05D00023FB717F
:105820004B4B00221A7002E0FB790133FB71FB79CC
:10583000052B00D8DAE700BF464803F0E1FC4648F4
:1058400003F0DEFC3F4B1B689B68184603F08CFAA4
:105850003E4B00221A6002E00020FEF7CBFA3B4BE1
:105860001B6842F210729342F6DD3C4803F0C8FC1C
:10587000344B1B689B68184603F076FA4FF40051CE
:105880003748FCF79CFC4FF480713548FCF789FCE5
:105890004FF400713248FCF784FC0120FEF7AAFAAD
:1058A0000120FBF777F903461846FAF7A3FD0446F3
:1058B0000D4601211120FBF797F903461846FAF728
:1058C00099FD02460B464FF033302649FAF726FF82
:1058D00002460B4620462946FAF7F6FD02460B46DD
:1058E000104619464FF000021F4BFAF7EDFD024635
:1058F0000B461046194610A3D3E90023FAF7E4FD3E
:1059000002460B4610461946FBF7A0F803469BB229
:1059100040F6AC52934206D9144B02221A70012071
:10592000FEF77CF901E000F02FF800BF0837BD4614
:10593000B0BD00BFAFF30080ACAAAAAAAAAAFA3FE2
:1059400074A300087402002084A30008141000202F
:105950000703002094A30008A8A30008C0A3000820
:10596000000C01403333F33F00408F40040300201C
:1059700080B400AF034B01221A7000BFBD4680BC4B
:10598000704700BF0503002080B500AF134803F047
:1059900037FC134B1B689B68184603F0E5F94FF47E
:1059A00000611048FCF70BFCFBF77EF901214FF07A
:1059B000C050FCF7E3FE0120FCF798FC0A4B1B6883
:1059C000094A23F480331360074B1B68064A23F40B
:1059D00080231360FCF79AFC00BF80BDC8A30008B9
:1059E00074020020000C01400010024080B400AF9F
:1059F000034B01221A7000BFBD4680BC704700BF38
:105A00000703002080B485B000AFF860B9607A6009
:105A10003B60FA68BB68D31AB9693A688A1A02FB14
:105A200003F27968BB68CB1AB2FBF3F23B6813440C
:105A300018461437BD4680BC7047000090B587B04B
:105A400000AF0446084611461A462346FB8003462B
:105A5000BB800B467B8013463B800123FB823B8D42
:105A60003B817A88FB88D31A3988BA888A1A02FB64
:105A700003F33B613B69002B63D07B88013B9AB207
:105A80003B88013B9BB2B988F88800F0ABFE00214F
:105A90002E48FCF7DEFF2D4B1B889BB22B4A43F4AC
:105AA00000639BB2138001212848FCF7D2FF10212C
:105AB0002748FCF784FB2CE03B694FF6FE729342CB
:105AC00008D93B69A3F57F43FE3B3B614FF6FE736C
:105AD000FB6003E00023FB823B69FB6007F10802E7
